:020000040000FA
:39000000FFFF62FF3600FFFFFFFFFFFFFFFFFFFFFFFFFFFFFFFFFFFFFFFFFFFFFFFFFFFFFFFFFFFFFFFFFFFFFFFFFFFFFFFFFFFFFFFFFFFFFFFFFFFFFF65
:39003900000C8001300006C00018000360000C808126000600000000000000000000000000000000300006C00018000360800C800130000640161880F1C4
:3900720000124002480009200124800490001240025400090000000000000000000000000000000048000920012480049000174002480009A0022400B6D6
:3900AB000000000000000000000000000000000000000000000000000000000000000000000000000000000000000000000000000000000000000080F9A3
:3900E4000000000000000000000000000000000000000000000000000000000000000000000000000000000000000000000000000000000000000080F96A
:39011D000000000000000000000000000000000000000000000000000000000000000000000000000000000000000000004001000000000000000080EDFB
:390156000000000000000000000000000000000000000000000000000000000000000100000000000000000000000000000004000000000000000080A843
:39018F00000000000000000000000000000000000000000000000000000000000000000000000000000000000000000000000000000000000A080000D94C
:3901C8000000000000000000000000000000000000000000000000000000000000000000000000000000000000000000000000000000000010000080E886
:39020100000000000000000000000000000000000000000000000000000000000000000000000000000000000000000000000000000000000E0000009125
:39023A000000000000000000000000000000000000000000000000000000000000000000000000000000000000000000000000000000000012000080C831
:390273000000000000000000000000000000000000000000000000000000000000000000000000000000000000000000000000000000000008000000F159
:3902AC00000000000000000000000000000000000000000000000000000000000000000000000000000000000000000000000000000000001600008088FB
:3902E5000000000000000000000000000000000000000000000000000000000000000000000000000000000000000000000000000000000008000000F1E7
:39031E000000000000000000000000000000000000000000000000000000000000000000000000000000000000000000000000000000000010000080E82E
:390357000000000000000000000000000000000000000000000000000000000000000000000000000000000000000000000000000000504800000000AD28
:390390000000000000000000000000000000000000000000000000000000000000000000000000000000000000000000000000000000800000000000F1C3
:3903C90000000000000000000000000000000000000000000000000000000000000000000000000000000000000000000000000000007000000000808982
:3904020008000000000000000000000000000000000000000000000000000000000000000000000000000000000000000000000000009000000000A0C3C6
:39043B000000000000000000000000000000000000000000000000000000000000000000000000000000000000000000000000000000400000000080B90F
:390474000000000000000000000000000000000000000000000000000000000000000000000000000000000000000000000000000000B00000000000C1DE
:3904AD000400000000000000000000000000000000000000000000000000000000000000000000000000000000000000000000000000400000000090EC56
:3904E6000000000000000000000000000000000000000000000000000000000000000000000000000000000000000000000000000000800000000000F16C
:39051F0010000080020800000000000000000000000000000000000000000000000000000000000000000000000000000000000000000000000000C09CAD
:390558000000000004000000000000000000000000000000000000000000000000000000000000000000000000000000000000000000000000000080B92D
:390591000000008003000000000000000000000000000000000000000000000000000000000000000000000000000000000000000000000000000080C16D
:3905CA000C00008004000000000000000000000000000000000000000000000000000000000000000000000000000000000000000000000000000030C672
:3906030004000000020000000000000000000000000000000000000000000000000000000000000000000000000000000000000000000000000000908C9C
:39063C000000008005000000000000000000000000000000000000000000000000000000000000000000000000000000000000000000000000000080A1DF
:390675000C00000002000000000000000000000000000000000000000000000000000000000000000000000000000000000000000000000000000030AE60
:3906AE000000000004000000000000000000000000000000000000000000000000000000000000000000000000000000000000000000000000000080B9D6
:3906E7000000000000000000000000000000000000000000000000000000000000000000000000000000000000000000000000000000000000000080F961
:390720000000000000000000000000000000000000000000000000000000000000000000000000000000000000000000000000000000000000000080F927
:390759000000000000000000000000000000000000000000000000000000000000000000000000000000000000000000000000000000000000000080F9EE
:390792000800000000000000000000000000000000000000000000000000000000000000000000000000000000000000000000000000000000000020DB2B
:3907CB000000000000000000000000000000000000000000000000000000000000000000000000000000000000000000000000000000000000000080F97C
:390804000000000000000000000000000000000000000000000000000000000000000000000000000000000000000000000000000000000000000080F942
:39083D000400000000000000000000000000000000000000000000000000000000000000000000000000000000000000000000000000000000000090AC42
:390876000000000000000000000000000000000000000000000000000000000000000000000000000000000000000000000000000000000000000080F9D0
:3908AF0000001404000000000000000000000000000000000000000000000000000000000000000000000000000000000000000000000000000000C0ED4B
:3908E8000000200000000000000000000000000000000000000000000000000000000000000000000000000000000000000000000000000000000080D95E
:3909210000001C0000000000000000000000000000000000000000000000000000000000000000000000000000000000000000000000000000000080E51C
:39095A0004002400000000000000000000000000000000000000000000000000000000000000000000000000000000000000000000000000000000B0AAE2
:390993000C00100000000000000000000000000000000000000000000000000000000000000000000000000000000000000000000000000000000010BC43
:3909CC0000002C0000000000000000000000000000000000000000000000000000000000000000000000000000000000000000000000000000000080D571
:390A05000800100000000000000000000000000000000000000000000000000000000000000000000000000000000000000000000000000000000030DA96
:390A3E000000200000000000000000000000000000000000000000000000000000000000000000000000000000000000000000000000000000000080D906
:390A77000000000000000000000000000000000000000000000000000000000000000000000000000000000000000000000000000000000000000080F9CD
:390AB0000000000000000000000000000000000000000000000000000000000000000000000000000000000000000000000000000000000000000080F994
:390AE9000000000000000000000000000000000000000000000000000000000000000000000000000000000000000000000000000000000000000080F95B
:390B220004000000000000000000000000000000000000000000000000000000000000000000000000000000000000000000000000000000000000A09F57
:390B5B000C00000000000000000000000000000000000000000000000000000000000000000000000000000000000000000000000000000000000000BD98
:390B94000000000000000000000000000000000000000000000000000000000000000000000000000000000000000000000000000000000000000080F9AF
:390BCD000800000000000000000000000000000000000000000000000000000000000000000000000000000000000000000000000000000000000010E8EF
:390C06000000000000000000000000000000000000000000000000000000000000000000000000000000000000000000000000000000000000000080F93C
:390C3F000000000000000000000000000000000000005008010000000000000000000000000000000000000000000000000000000000000000000000F52E
:390C78000000000000000000000000000000000000008000000000000000000000000000000000000000000000000000000000000000000000000080F152
:390CB1000000000000000000000000000000000000007000000000000000000000000000000000000000000000000000000000000000000000000080FE1C
:390CEA000800000000000000000000000000000000009000000000000000000000000000000000000000000000000000000000000000000000000010E148
:390D230000000000000000000000000000000000000040000000000000000000000000000000000000000000000000000000000000000000000000B0CED9
:390D5C00000000000000000000000000000000000000B000000000000000000000000000000000000000000000000000000000000000000000000080F23C
:390D950004000000000000000000000000000000000040000000000000000000000000000000000000000000000000000000000000000000000000A09BA6
:390DCE000000000000000000000000000000000000008000000000000000000000000000000000000000000000000000000000000000000000000080F1FB
:390E0700000000000000000000000000000000142200000000000000000000000000000000000000000000000000000000000000000000000A0900009FCA
:390E40000000000000000000000000000000002000000000000000000000000000000000000000000000000000000000000000000000000010000080EADF
:390E79000000000000000000000000000000001C0000000000000000000000000000000000000000000000000000000000000000000000000E000080D4C2
:390EB20004000000000000000000000000000024000000000000000000000000000000000000000000000000000000000000000000000000120000A0E845
:390EEB000C00000000000000000000000000001000000000000000000000000000000000000000000000000000000000000000000000000008000080B476
:390F24000000000000000000000000000000002C00000000000000000000000000000000000000000000000000000000000000000000000016000000CE84
:390F5D000800000000000000000000000000001000000000000000000000000000000000000000000000000000000000000000000000000008000090E1CA
:390F96000000000000000000000000000000002000000000000000000000000000000000000000000000000000000000000000000000000010000080EA88
:390FCF0010000000000000000000000000000000000000000000000000000000000000000000000000000000000000000000000000000000000000C0BC5D
:391008002000048000100002400008000120000480001000000000000000000000000000000000800010000240000800012000048000100002400080F9B2
:391041000000000000000000000000000000000000000000000000000000000000000000000000000000000000000000000000000000000000000080F9FD
:39107A002C000480001000024000080001200004800010000000000000000000000000000000008000100002400008000120000480001000024000308EEF
:3910B3000400200004000000000000000000002000008000000000000000000000000000000000000000000000000000000000000000800010000010DFBD
:3910EC00200000000010000240000800012000008000000000000000000000000000000000000080001000024000080001200004800000000040008080F1
:391125000C000000000000000000000000000000000000000000000000000000000000000000000000000000000000000000000000000000000000308EC7
:39115E002000048000100002400008000120000480001000000000000000000000000000000000800010000240000800012000048000100002400080F95B
:391197000000000000000000000000000000000000000000000000000000000000000000000000000000000000000000000000000000000000000080F9A6
:3911D0000000000000000000000000000000000000000000000000000000000000000000000000000000000000000000000000000000000000000080F96D
:391209000000000000000000000000000000000000000000000000000000000000000000000000000000000000000000000000000000000000000080F933
:391242000800000000000000000000000000000000000000000000000000000000000000000000000000000000000000000000000000000000000020DB70
:39127B000000000000000000000000000000000000000000000000000000000000000000000000000000000000000000000000000000000000000080F9C1
:3912B4000000000000000000000000000000008000000000000000000000000000000000000000000000000000000000000000000000000000000080F110
:3912ED000000000000000000000000000000000000000000000000000000000000000000000000000000000000000000000000000000000000000080F94F
:391326000000000000000000000000000000000000000000000000000000000000000000000000000000000000000000000000000000000000000080F915
:39135F000000000000000000000000000000000000000000000000000000000000000000000000000000000000000000000000000000000000000080F9DC
:391398000000000000002800000000000000000000020000000000000000000000000000000000000000000000000000000000000000002000040600992F
:3913D1000000000000002000000000000000000000040000000000000000000000000000000000000000000000000000000000000000002000100080ED22
:39140A000000000000000000000000000000000000000000000000000000000000000000000000000000000000000000000000000000000000000180E840
:391443000000000000000000000000000000000000000000000000000000000000000000000000000000000000000000000000000000000000000080F9F7
:39147C000000000000000000000000000000000000000000000000000000000000000000000000000000000000000000000000000000000000000080F9BE
:3914B5000000000000000000000000000000000000000000000000000000000000000000000000000000000000000000000000000000000000000080F985
:3914EE000000000000000000000000000000000000000080000000000000000000000000000000000000000000000000000000000000200000000000D94C
:391527000000000000000000000000000000000000000000000000000000000000000000000000000000000000000000000000000000000000000080F912
:391560000000000000000000000000000000000000000000000000000000000000000000000000000000000000000000000000000000000000000080F9D9
:391599000000000000000000000000000000000000000000000000000000000000000000000000000000000000000000000000000000000000000080F9A0
:3915D2001000000000000000000000000000000000000000000000000000000000000000000000000000000000000000000000000000000000000080F858
:39160B000000000000000000000000000000000000000000000000000000000000000000000000000000000000000000000000000000000000000080F92D
:391644000000000000000000000000000000000000000000000000000000000000000000000000000000000000000000000000000000000004000008B1B0
:39167D000000000000000000000000000000000000000000000000000000000000000000000000000000000000000000000000000000000000000008F13B
:3916B6000000000000000000000000000000000000000000000000000000000000000000000000000000000000000000000000000000000000000080F982
:3916EF000200000800000000000000000000000000008002000000000000000000000000000000000000000000000000000000000000000000000000F343
:391728000000000004000000000000000080020000000000000000000000000000000000000000000000000000000000000000000000000008000080B3C7
:391761000000000000000000000000000080000000000000000000000000000000000000000000000000000000000000000000000000000008000080F156
:39179A000000000001000000000000000000000000000000000000000000000000000000000000000000000000000000000000000000000000000080E9AC
:3917D3000000000000040000000000000000000000000000000000000000000000000000000000000000000000000000000000000000000004000080BD98
:39180C000000040000000000000000000000000000000000000000000000000000000000000000000000000000000000000000000000000000000080FD22
:391845000000000000000000000000000000000000000000000000000000000000000000000000000000000000000000000000000000000000000080F9F1
:39187E000000000000000000000000000000000000000000000000000000000000000000000000000000000000000000000000000000000000000080F9B8
:3918B70004000000000000000000000000000000000000000000000000000000000000000000000000000000000000000000000000000000000000A09FB5
:3918F0000000000000000000000000000000000000000000000000000000000000000000000000000000000000000000000000000000000000000080F946
:391929000000000000000000000000000000000000000000000000000000000000000000000000000000000000000000000000000000000000000080F90C
:391962000000000000000000000000000000000000000000000000000000000000000000000000000000000000000000000000000000000000000080F9D3
:39199B000000000000000000000000000000000000000000000000000000000000000000000000000000000000000000000000000000000000000080F99A
:3919D4000200000000000000000000000000000000000000000000000000000000000000000000000000000000000000000000000000000000000080DB7D
:391A0D000000000000000000000000000000000000000000000000000000000000000000000000000000000000000000000000000000000000000080F927
:391A46000000000000000000000000000000000000000000000000000000000000000000000000000000000000000000000000000000000000000080F9EE
:391A7F000000000000000000000000000000000000000000000000000000000000000000000000000000000000000000000000000000000000000080F9B5
:391AB8000000000000000000000000000000000000000000000000000000000000000000000000000000000000000000000000000000000000000080F97C
:391AF1000000000000000000000000000000000000000000000000000000000000000000000000000000000000000000000000000000000000000080F943
:391B2A000000000000000000000000000000000000000000000000000000000000000000000000000000000000000000000000000000000000000080F909
:391B63000000000000000000000000000000000000000000000000000000000000000000000000000000000000000000000000000000000000000080F9D0
:391B9C000000000000000000000000000000000000000000000000000000000000000000000000000000000000000000000000000000000000000080F997
:391BD5000000000000000000000000000000000000000000000000000000000000000000000000000000000000000000000000000000000000000080F95E
:391C0E000000000000000000000000000000000000000000000000000000000000000000000000000000000000000000000000000000000000000080F924
:391C47000000000000000000000000000000000000000000000000000000000000000000000000000000000000000000000000000000000000000080F9EB
:391C80000000000000000000000000000000000000000000000000000000000000000000000000000000000000000000000000000000000000000080F9B2
:391CB9000000000000000000000000000000000000000000000000000000000000000000000000000000000000000000000000000000000000000080F979
:391CF2000800000000000000000000000000000000000000000000000000000000000000000000000000000000000000000000000000000000000010E8B9
:391D2B0000000000000000000000000000000000000000000000000000000000000000000000000000000000000000000000000000000000000000B0CA05
:391D64000000000000000000000000000000000000000000000000000000000000000000000000000000000000000000000000000000000000000080F9CD
:391D9D0004000000000000000000000000000000000000000000000000000000000000000000000000000000000000000000000000000000000000A09FCA
:391DD6000000000000000000000000000000000000000000000000000000000000000000000000000000000000000000000000000000000000000080F95B
:391E0F001000008022000000000000000000000000000000000000000000000000000000000000000000000000000000000000000000000000400904E3B8
:391E480000000000040200000000000000000000000000000000000000000000000000000000000000000000000000000000000000000000000002809940
:391E81000000008003000000000000000000000000000000000000000000000000000000000000000000000000000000000000000000000000C00100984C
:391EBA000C00008004000000000000000000000000000000000000000000000000000000000000000000000000000000000000000000000000400220B548
:391EF30004000000020000000000000000000000000000000000000000000000000000000000000000000000000000000000000000000000000001808CA3
:391F2C000000008005000000000000000000000000000000000000000000000000000000000000000000000000000000000000000000000000C00200CB6A
:391F65000C000000020000000000000000000000000000000000000000000000000000000000000000000000000000000000000000000000000001109D87
:391F9E0000000000040000000000000000000000000000000000000000000000000000000000000000000000000000000000000000000000000002809BE9
:391FD70000000000000000000000000000000000000000000000000000000000000000000000000000000000000000000000000000000000000000C0BD54
:392010000000000000000000000000000000000000000000000000000000000000000000000000000000000000000000000000000000000000000080F91E
:392049000000000000000000000000000000000000000000000000000000000000000000000000000000000000000000000000000000000000000080F9E5
:392082000800000000000000000000000000000000000000000000000000000000000000000000000000000000000000000000000000000000000030CA23
:3920BB000000000000000000000000000000000000000000000000000000000000000000000000000000000000000000000000000000000000000090E874
:3920F4000000000000000000000000000000000000000000000000000000000000000000000000000000000000000000000000000000000000000080F93A
:39212D0004000000000000000000000000000000000000000000000000000000000000000000000000000000000000000000000000000000000000B08E37
:392166000000000000000000000000000000000000000000000000000000000000000000000000000000000000000000000000000000000000000080F9C7
:39219F000000000000000000000000000000000000000000000000000000000000000000000000801202000000000000000000000000000000000000F281
:3921D8000000000000000000000000000000000000000000000000000000000000000000000000000400000000000000000000000000000000000080BD8D
:392211000000000000000000000000000000000000000000000000000000000000000000000000800300000000000000000000000000000000000000C24F
:39224A000400000000000000000000000000000000000000000000000000000000000000000000800400000000000000000000000000000000000020D3E0
:392283000C000000000000000000000000000000000000000000000000000000000000000000000002000000000000000000000000000000000000009F75
:3922BC000000000000000000000000000000000000000000000000000000000000000000000000800500000000000000000000000000000000000000A4C0
:3922F5000800000000000000000000000000000000000000000000000000000000000000000000000200000000000000000000000000000000000010CACC
:39232E000000000000000000000000000000000000000000000000000000000000000000000000000400000000000000000000000000000000000080BD35
:3923670000000000000000000000000000000000000000000000000000000000000000000000000000000000000000000000000000000000000000C0BDC0
:3923A0000000000000000000000000000000000000000000000000000000000000000000000000000000000000000000000000000000000000000080F98B
:3923D9000000000000000000000000000000000000000000000000000000000000000000000000000000000000000000000000000000000000000080F952
:392412000800000000000000000000000000000000000000000000000000000000000000000000000000000000000000000000000000000000000030CA8F
:39244B000000000000000000000000000000000000000000000000000000000000000000000000000000000000000000000000000000000000000090E8E0
:392484000000000000000000000000000000000000000000000000000000000000000000000000000000000000000000000000000000000000000080F9A6
:3924BD0004000000000000000000000000000000000000000000000000000000000000000000000000000000000000000000000000000000000000B08EA4
:3924F6000000000000000000000000000000000000000000000000000000000000000000000000000000000000000000000000000000000000000080F934
:39252F000000000000000000000000000000000000000000000000000000000000000000000000000000000000000000000000000000504800000000AD2E
:392568000000000000000000000000000000000000000000000000000000000000000000000000000000000000000000000000000000800000000000F1C9
:3925A10000000000000000000000000000000000000000000000000000000000000000000000000000000000000000000000000000007000000000808988
:3925DA000400000000000000000000000000000000000000000000000000000000000000000000000000000000000000000000000000900000000020878D
:392613000C00000000000000000000000000000000000000000000000000000000000000000000000000000000000000000000000000400000000000FD45
:39264C000000000000000000000000000000000000000000000000000000000000000000000000000000000000000000000000000000B00000000000C1E4
:392685000800000000000000000000000000000000000000000000000000000000000000000000000000000000000000000000000000400000000010A81C
:3926BE000000000000000000000000000000000000000000000000000000000000000000000000000000000000000000000000000000800000000000F172
:3926F70000000000000000000000000000000000000050020100000000000000000000000000000000000000000000000000000000005044000000C0897A
:392730000000000000000000000000000000000000008000000000000000000000000000000000000000000000000000000000000000800000000000F977
:3927690000000000000000000000000000000000000070000000000000000000000000000000000000000000000000000000000000007000000000808E49
:3927A20008000000000000000000000000000000000090000000000000000000000000000000000000000000000000000000000000009000000000B0DB4B
:3927DB000000000000000000000000000000000000004000000000000000000000000000000000000000000000000000000000000000400000000090AC09
:39281400000000000000000000000000000000000000B000000000000000000000000000000000000000000000000000000000000000B00000000000CA61
:39284D0004000000000000000000000000000000000040000000000000000000000000000000000000000000000000000000000000004000000000B0CA54
:392886000000000000000000000000000000000000008000000000000000000000000000000000000000000000000000000000000000800000000000F920
:3928BF0010000000000000000000000000000000000000000000000000000000000000000000000000000000000000000000000000000000000000C0BC54
:3928F8002000048000100002400008000120000480001000000000000000000000000000000000800010000240000800012000048000100002400080F9AA
:392931000000000000000000000000000000000000000000000000000000000000000000000000000000000000000000000000000000000000000080F9F4
:39296A002C000480001000024000080001200004800010000000000000000000000000000000008000100002400008000120000480001000024000308EE6
:3929A30004000000040000000000000000000000000080000000000000000000000000000000000004000000000000000000000000008000000002108A53
:3929DC002000040000100002400008000120000480000000000000000000000000000000000000000010000240000800012000048000000002000000A8F6
:392A15000C000000000000000000000000000000000000000000000000000000000000000000000000000000000000000000000000000000000000308EBE
:392A4E002000048000100002400008000120000480001000000000000000000000000000000000800010000240000800012000048000100002400080F952
:392A87000000000000000000000000000000000000000000000000000000000000000000000000000000000000000000000000000000000000000080F99D
:392AC0000000000000000000000000000000000000000000000000000000000000000000000000000000000000000000000000000000000000000080F964
:392AF9000000000000000000000000000000000000000000000000000000000000000000000000000000000000000000000000000000000000000080F92B
:392B32000800000000000000000000000000000000000000000000000000000000000000000000000000000000000000000000000000000000000000F969
:392B6B000000000000000000000000000000000000000000000000000000000000000000000000000000000000000000000000000000000000000080F9B8
:392BA4000000000000000000000000000000000000000000000000000000000000000000000000000000000000000000000000000000000000000080F97F
:392BDD000000000000000000000000000000000000000000000000000000000000000000000000000000000000000000000000000000000000000180E856
:392C16000000000000000000000000000000000000000000000000000000000000000000000000000000000000000000000000000000000000000090E80D
:392C4F000000000000000000000000000000000000000000000000000000000000000000000000000000000000000000000000000000000000800000F1DB
:392C88000000000000002800000000000000000000000000000000000000000000000000000000000000000000000000000000000000000000000000FBF0
:392CC1000000000000002000000000000000000000000000000000000000000000000000000000000000000000000000000000000000000000000080FB3F
:392CFA000000000000000000000000000000000000000000000000000000000000000000000000000000000000000000000000000000000000000090E829
:392D33000000000000000000000000000000000000000000000000000000000000000000000000000000000000000000000000000000000000000080F9EE
:392D6C000000000000000000000000000000000000000000000000000000000000000000000000000000000000000000000000000000000000000080F9B5
:392DA5000000000000000000000000000000000000000000000000000000000000000000000000000000000000000000000000000000000000000080F97C
:392DDE000000000000000000000000000000000000000000000000000000000000000000000000000000000000000000000000000000000000000080F943
:392E17000000000000000000000000000000000000000000000000000000000000000000000000000000000000000000000000000000000000000080F909
:392E50000000000000000000000000000000000000000000000000000000000000000000000000000000000000000000000000000000000000000080F9D0
:392E89000000000004000000000000000000000000000000000000000000000000000000000000000000000000000000000000000000000000000080B9D3
:392EC2000000000000000000000000000000000000000000000000000000000000000000000000000000000000000000000000000000400000000080B95E
:392EFB000000000000000000000000000000000000000000010000000000000000000000000000000200000000000000000000000000000000000080DA41
:392F34000000000000000000000000000000000000000000000000000000000000000000000000000000000000000000000000000000200000000080D9EB
:392F6D000200000000000000000000000000000000000000000000000000000000000000000000000001000000000000000000000002000000000080EBBB
:392FA6000000000000000000000000000000000000000000000000000000000000000000000000000000000000000000000000000000000000000090E87A
:392FDF0002000000000000000000000000000000000000000000000000000000000000000000000000020000000000000000000000010000000000C0AF45
:3930180000000000000000000000000000000000000A000000000000000000000000000000000000000000000000000000000000001A000000000010DB70
:393051000000000000000000000000000000000000020000000000000000000000000000000000000000000000000000000000000002000000000080DBE7
:39308A000000000000000000000000000000000000000000000000000000000000000000000000000000000000000000000000000000000000000080F994
:3930C3000000000000000000000000000000000000000000000000000000000000000000000000000000000000000000000000000000000000000084B997
:3930FC000000000000000000000000000000000000000000000000000000000000000000000000000000000000000000000000000000000000000080F922
:393135000000000000000000000000000000000000000000000000000000000000000000000000000000000000000000000000000000000000000080F9E8
:39316E000000000000000000000000000000000000000000000000000000000000000000000000000000000000000000000000000000000000000080F9AF
:3931A7000800000000000000000000000000000000000000000000000000000000000000000000000000000000000000000000000000000000000000F9EE
:3931E0000000000000000000000000000000000000000000000000000000000000000000000000000000000000000000000000000000000000000080F93D
:3932190000000000000000000000000000000000000000000000000000000000000000000000000000000000000000000000000000000000000000C0BDFF
:393252000000000000000000000000000000000000000000000000000000000000000000000000000000000000000000000000000000000000000080F9CA
:39328B000000000000000000000000000000000000000000000000000000000000000000000000000000000000000000000000000000000000000080F991
:3932C4000000000000000000000000000000000000000000000000000000000000000000000000000000000000000000000000000000000000000008F1D8
:3932FD000000000000000000000000000000000000000000000000000000000000000000000000000000000000000000000000000000000000000080F91F
:393336000000000000000000000000000000000000000000000000000000000000000000000000000000000000000000000000000000000000000080F9E5
:39336F000000000000000000000000000000000080C20000000000000000000000000000000000000000000000000000002000000000000000000080B192
:3933A8000000000000000000000000000000000000040000000000000000000000000000000000000000000000000000000000000000000000000080FD6B
:3933E1000000000000000000000000000000000080030000000000000000000000000000000000000000000000000000000000000000000000000000FA36
:39341A000000000000000000000000000000000080040000000000000000000000000000000000000000000000000000000000000000000000000000FDF8
:393453000000000000000000000000000000000000020000000000000000000000000000000000000000000000000000000048000000000000000000B73F
:39348C000000000000000000000000000000000080050000000000000000000000000000000000000000000000000000006000000000000000000000FA28
:3934C5000000000000000000000000000000000000020000000000000000000000000000000000000000000000000000008001000000000000000080E3E8
:3934FE000000000000000000000000000000000000040000000000000000000000000000000000000000000000000000008001010000000000000080E4AB
:39353700000000000000000000000000000000000000000000000000000000000000000000000000000000000000000000A080008000000000000000FBC0
:393570000000000000000000000000000000000000000000000000000000000000000000000000000000000000000000000001000000000000000080E9B8
:3935A900000000000000000000000000000000000000000000000000000000000000000000000000000000000000000000E000000000000000000080F792
:3935E20004000000000000000000000000000000000000000000000000000000000000000000000000000000000000000020010000000000000000A08D5E
:39361B000C00000000000000000000000000000000000000000000000000000000000000000000000000000000000000008000000010010000000000A534
:393654000000000000000000000000000000000000000000000000000000000000000000000000000000000000000000006001008001000000000080F7E4
:39368D00080000000000000000000000000000000000000000000000000000000000000000000000000000000000000000800000000600000000001080E6
:3936C6000000000000000000000000000000000000000000000000000000000000000000000000000000000000000000000001000016080000000080909C
:3936FF00000000000000000000000000000000000000000000000000000000000000000000000000000000000000000000A0300000000000000000C0847E
:393738000000000000000000000000000000000000000000000000000000000000000000000000000000000000000000000001000000000000000080E9EE
:39377100000000000000000000000000000000000000000000000000000000000000000000000000000000000000000000E000000000000000000080F7C8
:3937AA0004000000000000000000000000000000000000000000000000000000000000000000000000000000000000000020010000000000000000B09C75
:3937E3000C00000000000000000000000000000000000000000000000000000000000000000000000000000000000000008000000000000000000010A46D
:39381C000000000000000000000000000000000000000000000000000000000000000000000000000000000000000000006001000000000000000080EFA3
:393855000800000000000000000000000000000000000000000000000000000000000000000000000000000000000000008000000000000000000030C2C0
:39388E000000000000000000000000000000000000000000000000000000000000000000000000000000000000000000000001000000000000000080E997
:3938C700000000000000000000000000000000000000000000000000000000000000000000000000000000000000000000A000010000000000000080F2B5
:393900000000000000000000000000000000000000000000000000000000000000000000000000000000000000000000000001000000000000000080E924
:39393900000000000000000000000000000000000000000000000000000000000000000000000000000000000000000000E000000000000000000080F7FE
:393972000800000000000000000000000000000000000000000000000000000000000000000000000000000000000000002001000000000000000020C90A
:3939AB000000000000000000000000000000000000000000000000000000000000000000000000000000000000000000008000000000000000000080F1F2
:3939E4000000000000000000000000000000000000000000000000000000000000000000000000000000000000000000006001000000000000000080EFDA
:393A1D000400000000000000000000000000000000000000000000000000000000000000000000000000000000000000008000000000000000000090A4B8
:393A56000000000000000000000000000000000000000000000000000000000000000000000000000000000000000000000001000000000000000080E9CD
:393A8F00100000000000000000000000000000000000000000000000000000000000000000000000000000000000000000A0000200000000000000C0B4D8
:393AC8000000000000000000000000000000000000000000000000000000000000000000000000000000000000000000000001000000000000000080E95B
:393B0100000000000000000000000000000000000000000000000000000000000000000000000000000000000000000000E000000000000000000080F734
:393B3A000C000000000000000000000000000000000000000000000000000000000000000000000000000000000000000020010000000000000000309C59
:393B73000400000000000000000000000000000000000000000000000000000000000000000000000000000000000000008000000000000000000090A461
:393BAC000000000000000000000000000000000000000000000000000000000000000000000000000000000000000000006001000000000000000080EF10
:393BE5000C000000000000000000000000000000000000000000000000000000000000000000000000000000000000000080000000000000000000308665
:393C1E000000000000000000000000000000000000000000000000000000000000000000000000000000000000000000000001000000000000000080E903
:393C57000000000000000000000000000000000000000000000000000000000000000000000000000000000000000000002000008022020000000080F3FD
:393C90000000000000000000000000000000000000000000000000000000000000000000000000000000000000000000000000000004000000000080B9BE
:393CC9000000000000000000000000000000000000000000000000000000000000000000000000000000000000000000000000008003000000000080C1FE
:393D020008000000000000000000000000000000000000000000000000000000000000000000000000000000000000000000000080040000000000209349
:393D3B000000000000000000000000000000000000000000000000000000000000000000000000000000000000000000000010000002000000000080C8F5
:393D74000000000000000000000000000000000000000000000000000000000000000000000000000000000000000000006040008005000000000080E38E
:393DAD0004000000000000000000000000000000000000000000000000000000000000000000000000000000000000000080010000020000000000909432
:393DE6000000000000000000000000000000000000000000000000000000000000000000000000000000000000000000008001010004000000000080A0FE
:393E1F000000000000000000000000000000000000005008010000000000000000000000000000000000000000000000002000008000000000000040BB76
:393E58000000000000000000000000000000000000008000000000000000000000000000000000000000000000000000000000000000000000000080F140
:393E91000000000000000000000000000000000000007000000000000000000000000000000000000000000000000000000000000000000000000080FE0A
:393ECA0004000000000000000000000000000000000090000000000000000000000000000000000000000000000000000000000000000000000000B087F4
:393F03000C00000000000000000000000000000000004000000000000000000000000000000000000000000000000000000004000000010000000010E93B
:393F3C00000000000000000000000000000000000000B000000000000000000000000000000000000000000000000000006040008001000000000080A853
:393F75000800000000000000000000000000000000004000000000000000000000000000000000000000000000000000008001000006000000000030B65E
:393FAE00000000000000000000000000000000000000800000000000000000000000000000000000000000000000000000800101001608000000008091A9
:393FE7001000000000000000000000000000000000000000000000000000000000000000000000000000000000000000002000008012020000000080C19C
:394020000000000000000000000000000000000000000000000000000000000000000000000000000000000000000000000000000004000000000080B92A
:394059000000000000000000000000000000000000000000000000000000000000000000000000000000000000000000000000008003000000000080C16A
:394092000C00000000000000000000000000000000000000000000000000000000000000000000000000000000000000000000008004000000000020D76E
:3940CB0004000000000000000000000000000000000000000000000000000000000000000000000000000000000000000000080000020000000000009519
:394104000000000000000000000000000000000000000000000000000000000000000000000000000000000000000000006040008005000000000080E3FA
:39413D000C000000000000000000000000000000000000000000000000000000000000000000000000000000000000000080010000020000000000109416
:394176000000000000000000000000000000000000000000000000000000000000000000000000000000000000000000008001010004000000000080A06A
:3941AF0000000000000000000000000000000000000000000000000000000000000000000000000000000000000000000000000000000000000000C0BD5A
:3941E8002000048000100002400008000120000480001000000000000000000000000000000000800010000240000800012000048000100002400080F9A1
:394221000000000000000000000000000000000000000000000000000000000000000000000000000000000000000000000000000000000000000080F9EB
:39425A0024000480001000024000080001200004800010000000000000000000000000000000008000100002400008000120000480001000024000B08E65
:394293000C00000000000000000000000000000000048000000000000000000000000000000000000000000000000000000001000004000000000010F05D
:3942CC002000048000100002400008000120000400000000000000000000000000000000000000800010000240000800010000040000100002400000F273
:394305000800000000000000000000000000000000000000000000000000000000000000000000000000000000000000000000000000000000000030CA7D
:39433E002000048000100002400008000120000480001000000000000000000000000000000000800010000240000800012000048000100002400080F949
:394377000000000000000000000000000000000000000000000000000000000000000000000000000000000000000000000000000000000000000080F994
:3943B0000000000000000000000000000000000000000000000000000000000000000000000000000000000000000000000000000000000000000080F95B
:3943E9000000000000000000000000000000000000000000000000000000000000000000000000000000000000000000000000000000000000000080F922
:394422000000000000000000000000000000000000000000000000000000000000000000000000000000000000000000000000000000000000000008F168
:39445B000000000000000000000000000000000000000000000000000000000000000000000000000000000000000000000000000000000000000080F9AF
:394494000000000000000000000000000000000000000000000000000000000000000000000000000000000000000000000000000000000000000080F976
:3944CD000200000000000000000000000000000000000000000000000000000000000000000000000000000000000000000000000000000000000080DB59
:394506000000000000000000000000000000000000000000000000000000000000000000000000000000000000000000000000000000000000000080F903
:39453F0000000000000000000000000000000000000000000000000000000000000000000000000000000000000000000000000000000000000000A0DBC8
:394578000000000000000000000000000000000000004001000000000000000000000000000000000000000000000000000000500080000000000000BD3C
:3945B1000000000000000000000000000000000000004000000000000000000000000000000000000000000000000000000000100000000000000080ED14
:3945EA000000000000000000000000000000000000000000000000000000000000000000000000000000000000000000000000000000010000000080F81F
:394623000000000000000000000000000000000000000000000000000000000000000000000000000000000000000000000000000000000000000080F9E5
:39465C000000000000000000000000000000000000000000000000000000000000000000000000000000000000000000000000000000000000000080F9AC
:394695000000000000000000000000000000000000000000000000000000000000000000000000000000000000000000000000000000000000000080F973
:3946CE000000000000000000000000000000000000000000000000000000000000000000000000000000000000000000000000000000000000000080F93A
:394707000000000000000000000000000000000000000000000000000000000000000000000000000000000000000000000000000000000000000080F900
:394740000000000000000000000000000000000000000000000000000000000000000000000000000000000000000000000000000000000000000080F9C7
:394779000000000000000000000000000000000000000000000000000000000000000000000000000000000000000000000000000000000000000080F98E
:3947B2000000000000000000000000000000000000000000000000000000000000000000000000000000000000000000000000000000000000000080F955
:3947EB000000000000000000000000000000000080000000000000000000000000000000000000000000000000000000000000000002000000000000D93A
:394824000000000000000000000000000000000000000080000000000000000000000000000000000000000000000000000000000002000000000000D900
:39485D0000000000000000000000000000000000000000000000000000000000000000000000000000000000000000000000000000000000000000A0DBA7
:394896000000000000000000000000000000000000020000000000000000000000000000000000000000000000000000000000000000000000000080FB6C
:3948CF001800000000000000000000000000000080000000000000000000000000000000000000000000000000000000008000000000000000000080F028
:394908000000000000000000000000000000000000100000000000000000000000000000000000000400000000800010008040000000009800000008F979
:394941000000000000000000000000000000000000000000000000000000000000000000000000000000000000400008008040000000000000000000FD38
:39497A000000000000000000000000000000000000000000000000000000000000000000000000000100000000000000000000000000001000000080E98A
:3949B3000000000000000000000000000000000000000000000000000000000000000000000000000000000000000000004000000000000000000080FD0E
:3949EC000000000000000000000000000000000000000000000000000000000000000000000000000000000000000000000000000000000000000080F919
:394A25000000000000000000000000000000000000000000000000000000000000000000000000000000000000000000000000000000000000000080F9DF
:394A5E000000000000000000000000000000000000000000000000000000000000000000000000000000000000000000000000000000000000000080F9A6
:394A97000A00000000000000000000000000000000000000000000000000000000000000000000000000000000000000000000000000000000000000DB01
:394AD0000400000000000000000000000000000000000000000000000000000000000000000000000000000000000000000000000000000000000080BD6C
:394B09000000000000000000000000000000000000000000000000000000000000000000000000000000000000000000000000000000080000000080F1FA
:394B42000000000000000000000000000000000000000000000000000000000000000000000000000000000000000000000000000000000000000008F141
:394B7B000000000000000000000000000000000000000000000000000000000000000000000000000000000000000000002000010000000000000080FA66
:394BB4000000000000000000000000000000000000000000000000000000000000000000000000000000000000000000000000000000000000000080F94F
:394BED000000000000000000000000000000000000000000000000000000000000000000000000000000000000000000000084000000000000000000B952
:394C26000000000000000000000000000000000000000000000000000000000000000000000000000000000000000000000000000000000000000080F9DC
:394C5F000000802000000000000000000000000000000004000000000000000000000000000000000000000000000000000000000000002000000000B1A7
:394C98000000200000000000000000000000000000002010000000000000000000000000000000000000000000000000000000000000800000000000C251
:394CD1000000000000000000000000000000000000000000000000000000000000000000000000000000000000000000000000000000000000000080F931
:394D0A000000000000000000000000000000000000000000000000000000000000000000000000000000000000000000000000000000000000000080F9F7
:394D43000012E0025400092001248004900012400248001D00000000000000000000000000000000540009200154800A900012400248801720012480EB05
:394D7C00000C9081260006C00018000360000C800130002600000000000000000000000000000080260006C000C8025960000C80013040B2C0001800D54C
:024DB500FFFFFE
:00000001FF
