:020000040000FA
:4D000000FFFF62FF3900FFFFFFFFFFFFFFFFFFFFFFFFFFFFFFFFFFFFFFFFFFFFFFFFFFFFFFFFFFFFFFFFFFFFFFFFFFFFFFFFFFFFFFFFFFFFFFFFFFFFFFFFFFFFFFFFFFFFFFFFFFFFFFFFFFFFFFFFFFFFFF62
:4D004D00A0098001300006C00018000360000C8001300006C0001800034D000C8001000000000000000000000000000000000C8001300072C00018000364A009800130D004C00018000360000C800148FDAA
:4D009A0000154002480009200124800490001240024800092001248004A800124002000000000000000000000000000000001240024800152001248004B80015400248800A20012480049000124002A0FC0A
:4D00E70000000000000000000000000000000000000000000000000000000000000000000000000000000000000000000000000000000000000000000000000000000000000000000000000000000098FF35
:4D01340000000000000000000000000000000000000000000000000000000000000000000000000000000000000000000000000000000000000000000000000000000000000000000000000000000098FFE7
:4D01810000000000000000000000000000000000000000000000000000000000000000000000000000000000000000000000000000000000000000000008000000000000000000000000000000000090FF9A
:4D01CE00000000000000000000000000000000000000000000000000000000000000000000000000000000400000000000000000000000000000000000100000000000000000000000000000000000C8FFCD
:4D021B0020040400000000000000084101000084200000000040000000000000000000000000000000000000000000000000000080000000000000000000000000000000000000000000000000000050F878
:4D026800008000000000000000004000000000000000000000000000000000000000000000000000000000000000000000000000000000000000000000000000000000000000000000000000000000D0FBBE
:4D02B5006000300000000000000018200C00000C100000000000030000000000000000000000000000000000000000000000000000060000000000000000000000000000000000000000000000000070FB98
:4D030200202980080000000000000802200200240100000000008800000000000000000000000000000000000000000000000000001001000000000000000000000000000000000000000000000000F8FA01
:4D034F008001300100000000000020004C000030000000000000130000000000000000000000000000000000000000000000000000260000000000000000000000000000000000000000000000000020FCBE
:4D039C00E0413C0800000000000078100F02003C0800000000C08300000000000000000000000000000000000000000000000000800701000000000000000000000000000000000000000000000000D8FA35
:4D03E90080000000000000000000600000000010000000000000000000000000000000000000000000000000000000000000000000000000000000000000000000000000000000000000000000000068F976
:4D0436008091301200000000000060248C0400301200000000002301000000000000000000000000000000000000000000000000004602000000000000000000000000000000000000000000000000A8FAC2
:4D04830020000400000000004000080001000004A100000000400000000000000400000000000000000000000000000000200004800000000000000000000000000000000000000000000100000000A8F891
:4D04D00000000000000000000000000000000000000000000000000000000000000000000000000000000000000000000000000000000000000000000000000000000000000000000000000000000098FF48
:4D051D008001300000000000000360000C02000C1006000000008300000000003000000000000000000000000000000000800130000601000000000000000000000000000000000000000C0000000018FBC3
:4D056A00085000110000000000A0001420000024014001000000200000000000000A0000000000000000000000000000000050000A100000000000000000000000000000000000000000800200000092FCFD
:4D05B7008049304200000000009360128C0200300226010000008B00000000003009000000000000000000000000000000804930094601000000000000000000000000000000000000004C0200000010FD68
:4D060400E0013C0000000000C00378000F00003C8807000000C00300000000003C00000000000000000000000000000000E0013C800700000000000000000000000000000000000000000F0000000058F875
:4D065100040000000000000000000000000000100000000000000000000000000000000000000000000000000000000000000000000000000000000000000000000000000000000000000000000000D9FA75
:4D069E008091301200000000002361248C0400301246020000002301000000003012000000000000000000000000000000809130124602000000000000000000000000000000000000008C0400000080F9F0
:4D06EB0020000421000000004000080041080004A100000000400800000000000400000000000000000000000000000000200004802004000000000000000000008006000000000000000100000000D0FBE1
:4D073800000000000000000000000000000000200000000000000001000000000000000000000000000000000000000000000000000000000000000000000000000006000000000000000000000000C8FF86
:4D07850080410C0000000000008360100304000C1006010000C00000000000003008000000000000000000000000000000804130880100000000000000000000000000000000000000000C02000000C0FD00
:4D07D20008042442000000000008000189000004011000000040120100000000800000000000000000000000000000000000048080A4000000000000000000000000160400000000000020000000003AFAD8
:4D081F008051B00000000000008360142C0000900046010000000B0000000000300A000000000000000000000000000000805130081600000000000000000000000006020000000000008C02000000E8FB34
:4D086C00E0013C0800000000C00378000F02003C8807000000C08300000000003C00000000000000000000000000000000E0013C800701000000000000000000008007000000000000000F0000000030FA1F
:4D08B90004001000000000000000000004000030000000000000010000000000000000000000000000000000000000000000000000020000000000000000000000000604000000000000000000000099F80C
:4D0906008091301200000000002361248C0400301246020000002301000000003012000000000000000000000000000000809130124602000000000000000000000006000000000000008C04000000E0F91F
:4D095300203004210000000040000A014108000480C000000040080000000000042000000000000000000000000000000020300486200400000000000000000000000000000000000000010100000070FA34
:4D09A00000002000000000000000002008000000000000000000020100000000000000000000000000000000000000000000000000040000000000000000000000000000000000000000000000000080F942
:4D09ED0060000D0000000000C0001820030400308001000000C00000000000000C1000000000000000000000000000000060000CA0010000000000000000000000000000000000000000030400000028F890
:4D0A3A0028110442000000004012490281000000882402000040100100000000240100000000000000000000000000000020892482A000000000000000000000000000000000000000004900000000DAFCA0
:4D0A8700800910010000000000136002440000B00026000000001100000000003001000000000000000000000000000000800930012200000000000000000000000000000000000000004C00000000F0FDA2
:4D0AD400E0413C0800000000C08378100F02003C8807010000C08300000000003C08000000000000000000000000000000E0413C880701000000000000000000000000000000000000000F0200000070FAD9
:4D0B21008400300000000000000120000C000000000200000000030000000000100000000000000000000000000000000080001000060000000000000000000000000000000000000000040000000081FF77
:4D0B6E008091301200000000002361248C0400301246020000002301000000003012000000000000000000000000000000809130124602000000000000000000000000000000000000008C0400000080F91B
:4D0BBB00203004000000000240000A010100000480C0000000400800000000000420000000000000000000000000000000203004860000000000000000000000000000000000000000000101000000E8FBDC
:4D0C080000010000000000000002402000000000000400000000000100000000200000000000000000000000000000000000012000000000000000000000000000000000000000000000080000000000FBF3
:4D0C55006000010000000018C4001820000000308001000000C00000000000000C1000000000000000000000000000000060000C20000000000000000000000000000000000000000000030400000080FF3E
:4D0CA2002810301000000040401009020C040000892002000040220200000000040100000000000000000000000000000020880402060200000000000000000000000000000000000000410000000072FA6B
:4D0CEF00804800020000001805912012800000300622010000009300000000001009000000000000000000000000000000804810094000000000000000000000000000000000000000004402000000D0FC56
:4D0D3C00E0013C080000001EC00378000F02003C8007000000C00300000000003C00000000000000000000000000000000E0013C800701000000000000000000000000000000000000000F0000000050FD18
:4D0D89008401300000000000000360000C0400000006000000000100000000003000000000000000000000000000000000800130000604000000000000000000000000000000000000000C0000000049FFAF
:4D0DD6008091300900000018092361240C0000301246020000002301000000003012000000000000000000000000000000809130120600000000000000000000000000000000000000008C0400000040FB9D
:4D0E2300203084000000004250000A012100008480C000000040080000000000042000000000000000000000000000000020300486100000000000000000000000800000000000000000010100000098FFBD
:4D0E7000000000100000000000000020000400001000000000000201000000000000000000000000000000000000000000000000000002000000000000000000000006000000000000000000000000C8FA24
:4D0EBD0060000C0000000006C80018200304000C9001000000C00000000000000C1000000000000000000000000000000060000C80010000000000000000000000000600000000000000030400000090FB71
:4D0F0A00282924420000001241224A0489000024814404000040200200000000240200000000000000000000000000000020112585A4000000000000000000000000160400000000000089000000001AF8EE
:4D0F57008045B00800000058048B60112C0200B0081601000000890000000000B0080000000000000000000000000000008045B0081601000000000000000000000006020000000000002C0200000018F95F
:4D0FA400E0013C000000001EC00378000F00003C8007000000C00300000000003C00000000000000000000000000000000E0013C800700000000000000000000008007000000000000000F0000000030FF50
:4D0FF10084001000000000080001200004000010000200000000030000000000100000000000000000000000000000000080001000020000000000000000000000000604000000000000040000000031FDFF
:4D103E008091301200000018092361248C0400301246020000002301000000003012000000000000000000000000000000809130124602000000000000000000000006000000000000008C04000000E8F8B8
:4D108B002030040000000042500008012100000480C000000040080000000000042000000000000000000000000000000020300480100000000000000000000000800600000000000000010100000090FB61
:4D10D80000010000000000100000402008040000000400000000020100000000200000000000000000000000000000000000010000040200000000000000000000000600000000000000080000000078F8A2
:4D112500600030080000000608001820030400308801000000C00000000000000C10000000000000000000000000000000600000800100000000000000000000000006000000000000000304000000F0F92C
:4D11720028288000000000020103090481000080804004000040500000000000040200000000000000000000000000000020103190A000000000000000000000000010040000000000008100000000E2FBEF
:4D11BF0080503008000000080508201484020030084201000000A10000000000100A00000000000000000000000000000080508000420100000000000000000000000608000000000000840200000068FC4B
:4D120C00E0013C000000001EC08378000F00003C8007000000C00300000000003C00000000000000000000000000000000E0013C880700000000000000000000008007000000000000000F00000000B8FFD5
:4D1259008401000000000018000360000C0000000006000000000300000000003000000000000000000000000000000000800130000600000000000000000000000006040000000000000C00000000B1FF86
:4D12A6008091301200000018098360248C0400301246020000002301000000003012000000000000000000000000000000809130084602000000000000000000000006000000000000008C0400000070FB6E
:4D12F300200084000000000240000A00010000848000000000400000000000000400000000000000000000000000000000200004860000000000000000000000008000000000000000000100000000E8FD65
:4D134000000020100000000000020000000000201000000000000000000000000000000000000000000000000000000000000020000000000000000000000000000006000000000000000000000000F8FCE4
:4D138D0000000C0000000000C00000000000000C100000000000000000000000000000000000000000000000000000000000000C00000000000000000000000000000600000000000000000000000028FEF3
:4D13DA008881044200000018482062200C0400040106020000000301000000003010000000000000000000000000000000808104050602000000000000000000000016040000000000000C040000007AF866
:4D142700000410080000008004810001000000100810000000002000000000008000000000000000000000000000000000000410080000000000000000000000000006080000000000002000000000A8FF9D
:4D147400E0413C000000001EC00378100F02003C8007010000C08300000000003C08000000000000000000000000000000E0413C800701000000000000000000008007000000000000000F0200000098FDF7
:4D14C1008401300000000018000360000C0800300006000000000300000000003000000000000000000000000000000000800130000604000000000000000000000006040000000000000C0000000049FC1B
:4D150E008041301200000018112361104C0000301206010000009300000000003008000000000000000000000000000000804130121600000000000000000000000006000000000000000C0200000048FEFD
:4D155B0000000000000000000000000000000000000000000000000000000000000000000000000000000000000000000000000000000000000000000000000000000000000000000000000000000098FFAC
:4D15A80020000480001000024000080001200004800010000240000800012000040000000000000000000000000000000020000480001000024000080001200004800010000240000800012000040098FF1B
:4D15F50000000000000000000000000000000000000000000000000000000000000000000000000000000000000000000000000000000000000000000000000000000000000000000000000000000098FF12
:4D164200280004800010000240000800012000048000100002400008000120000400000000000000000000000000000000200004800010000240000800012000048000100002400008000120000400B2FD60
:4D168F0000012000000000100002400008000020000400000000020000000000200000000000000000000000000000000000012000040000000000000000000000000000000000000000080000000028FCFC
:4D16DC0020000480001000024000080001200004800010000240000800012000040000000000000000000000000000000020000480001000024000080001200004800010000240000800012000040098FFE6
:4D172900040000000000000000000000000000000000000000000000000000000000000000000000000000000000000000000000000000000000000000000000000000000000000000000000000000C9FAAC
:4D17760020000480001000024000080001200004800010000240000800012000040000000000000000000000000000000020000480001000024000080001200004800010000240000800012000040098FF4B
:4D17C30000000000000000000000000000000000000000000000000000000000000000000000000000000000000000000000000000000000000000000000000000000000000000000000000000000098FF42
:4D18100000000000000000000000000000000000000000000000000000000000000000000000000000000000000000000000000000000000000000000000000000000000000000000000000000000098FFF4
:4D185D00000000000000000000000000000000000000000000000000000000000000000000000000000000000000000000200004000000000000000000000000000000000000000000000000000000F8FF23
:4D18AA0000010004000000000000400000000000000000000000020000000000000000000000000000000000000000000000000000000000000000000000000000000000000000000000000000000098FC16
:4D18F70000000000000000000000000000000000000000000000000000000000000000000000000000000000000000000000000000000000000000000000000000000000000000000000000000000098FF0D
:4D19440000000000000000000000000000000000000000000000000000000000000000000000000000000000000000000000000000000000000000000000000000000000000000000000000000000098FFBF
:4D19910000000000000000000000000000000000000000000000000000000000000000000000000000000000000000000000000000000080000000000000000000000080000000000000000000000098FF72
:4D19DE00004000000000000000000010000000000000000000000000000000000000000000000000000000000000000000000000000000000000000000000000000002000000000000000000000000F8FA78
:4D1A2B00000001000000000000000040000000000000000000000000000000000000000000000000000000000000000000000000000000400000000000000000008002200000000000000000000000C0FB90
:4D1A780080000000000000000000000000000020000000000000000000040000000000000000000000000000000000000000000000000000000000000000800000000040000000000000000000000070FB52
:4D1AC50000010000000000000000000000000000000000000000000000080000000000000000000000000000000000000000000000000000000000000000000100000080000000000000000000000080FECC
:4D1B120000000000000000000000000000000010000000000000000000000000000000000000000000000000000000000000000000000000000000000000000000000000000000000000000000000088FFEF
:4D1B5F0000000000000000000000100020000008000000000000000000000000080000000000000000000000000000000000000000000000000000000000000000000000000000000000020000000028FCD3
:4D1BAC0000000000000000000000000000000000000000000000000000000000000000000000000000000000000000000000000000000000000000000000000000000000000000000000000000000098FF55
:4D1BF900000000000000000000000000000000000000000000000000000000000000000000000000000000000000000000000000000000000000000000000000000000040000000000000000000000D8FBC8
:4D1C460000000000000000000000000000000000000000000000000000000000000000000000000000000000000000000000000000000000000000000000000000000000000000000000000000000098FFBA
:4D1C930000000000000000000000000000000000000000000000000000000000000000000000000000000000000000000000000000000000000000000000000000000000000000000000000000000098FF6D
:4D1CE00000000000000000000000000000000000000000000000000000000000000000000000000000000000000000000000000000000000000000000000000000000000000000000000000000000098FF20
:4D1D2D0000000000000000000000000000000000000000000000000000000000000000000000000000000000000000000000000000000000000000000000000000000000000000000000000000000098FFD2
:4D1D7A0000000000000000000000000000000000000000000000000000000000000000000000000000000000000000000000000000000000000000000000000000000000000000000000000000000098FF85
:4D1DC70000000000000000000000000000000000000000000000000000000000000000000000000000000000000000000000000000000000000000000000000000000000000000000000000000000098FF38
:4D1E140000000000000000000000000000000000000000000000000000000000000000000000000000000000000000000000000000000000000000000000000000001000000000000000000000000098FEDB
:4D1E610000000000000000000000000000000000000000000000000000000000000000000000000000000000000000000000000000000000000000000000000000000000000000000000000000000098FF9D
:4D1EAE0000004000000000000000000000000000000000000000000000000000000000000000000000000000000000000000000000000000000000000000000000000000000000000000000000000098FB14
:4D1EFB0000036000000000300006C00018000024000C000000000600000000006000000000000000000000000000000000000360000C0000000000000000000000000000000000000000180000000048FFC5
:4D1F480000000000000000000000000000000000000000000000000000000000000000000000000000000000000000000000000000000000000000000000000000000000000000000000000000000098FFB5
:4D1F9500200000000000000000000000000000008000000000000000000000000000000000000000000000000000000000000000000000000000000000000000000000000000000000000000000000B0FFB0
:4D1FE20000000000000000000000000000000000000000000000000000000000000000000000000000000000000000000000000000000000000000000000000000000001000000000000000000000088FE2B
:4D202F0000000000000000000200000800000000040000000000000000000000000000000000000000000000000000000000000000000000000000000000000000000000000000000000000000000038FB23
:4D207C00000020000000000000000000080100200400000000000000000000000000000000000000000000000000000000000000008400000000000000000000000000000000000000000000000000B8FC92
:4D20C90000000000000000000000000000000000000000000000000000000000000000000000000000000000000000000000000000800000000000000000000000000000000000000000000000000090FFBB
:4D21160020000000000000000000000000000000000000000040000000000000000000000000000000000000000000000000000480000000000000000000000000000000000000000000000000000038FF61
:4D21630000000000000000000000000000000000000000000000000000000000000000000000000000000000000000000000000000000000000000000000000000000000000000000000000000000098FF98
:4D21B00000000000000000000000000000000000000000000000000000000000000000000000000000000000000000000000000000000000000000000000000000000000000000000000010000000098FE4B
:4D21FD00000000000000000004000000000000000000000000000000000000000000000000000000000000000000000000000000000000000000000000000000000000000000000000000000000000D8FFBA
:4D224A00000000000000000000000000020000000000000000000000000000000000000000000000000000000000000000000000001000000000000000000000000000000000000000000000000000A8FC91
:4D22970000000000000000000000000000000000000000000000000000000000000000000000000000000000000000000000000000000000000000000000000000000000000000000000000000000098FF63
:4D22E400000010000000000000000000000020100800000000000100000000000000000000000000000000000000000000000000000000000000000000000000000082000000000000000000000000A8FD3D
:4D233100000004080000000000010000040200052000000000400000000000000000000000000000000000000000000000000010000001000000000000000000008002040000000000000000000000C8FA8E
:4D237E002000000000000002000000002200200000010000240000200000400200000000000000000000000000000000002000000001000000000000000000000000850A000000000000020001100018FA52
:4D23CB0000000000000000000000000000000000000000000000001000000000000000000000000000000000000000000000000000000000000000000000000000000000000000000000000000080010FE9F
:4D241800000000000000000000000000000000010000000000000000000000000000000000000000000000000000000000000000000000000000000000000000000002010000000000000040000000B8FB80
:4D24650000000000000000000000000000000000000000000000000000000000000000000000000000000000000000000000000000000000000000000000000000000000000000000000000000000098FF93
:4D24B200000000200000000000000000000000000000000000000000000000000000000000000000000000000000000000000000000000000000000000000000000000000000000000000000000000B8FF06
:4D24FF0000000000000000000008000000000000000000000000000000000000800000000000000000000000000000000000000000000000000000000000000000000000000000000000000000000098FF71
:4D254C0000000000000000000000000000000000000000000000000000000000000000000000000000000000000000000000000000000000000000000000000000000000000000000000000000000098FFAB
:4D25990000000000000000000080000000000000000001000000800000000000000000000000000000000000000000000000400000000000000000000000000000000000000000000000000000000040FA7A
:4D25E60000000000000000000004000000000000000800000000040000000000000000000000000000000000000000000000020000000000000000000000000000000000000000000000000000000058FD41
:4D26330000000000000000000000000000000000000000000000000000000000000000000000000000000000000000000000000000000000000000000000000000000100000000000000000000000088FFD2
:4D26800000000000000000000000000000000000000000000000000000000000000000000000000000000000000000000000000000000000000000000000000000000000000000000000000000000098FF76
:4D26CD0000000000000000000000000000000000000000000000000000000000000000000000000000000000000000000000000000000000000000000000000000000000000000000000000000000098FF29
:4D271A0000000000000000000000000000000000000000000000000000000000000000000000000000000000000000000000000000000000000000000000000000000000000000000000000000000098FFDB
:4D27670000000000000000000000000000000000000000000000000000000000000000000000000000000000000000000000000000000000000000000000000000000000000000000000000000000098FF8E
:4D27B40000200040000000080000200004000000000000000000000000000000100000000000000000000000000000000000000004000000000000000000000000000000000000000000040000000040FAFA
:4D28010000000000000000000000000000000000000000000040000000000000842000000000000000000000000000000000000000000000000000080000000000000010000000000000000000000048F94D
:4D284E0000000000000000000000000000000000000000000000000000000000000000000000000000000000000000000000000000000000000000000000000000000000000000000000000000000098FFA6
:4D289B00000000000000000000000000000000000000000000000300000000000C00000000000000000000000000000000000000000000000000006000000000000000C00000000000000000000000B0FE13
:4D28E80000000000000000000000000000000000000000000000880000000000241000000000000000000000000000000000000000000000000000001100000000000000220000000000000000000008F9B3
:4D293500000000000000000000000000000000000000000000001300000000003000000000000000000000000000000000000000000000000000006002000000000000C0040000000000000000000038FCB8
:4D298200000000000000000000000000000000000000000000C08300000000003C08000000000000000000000000000000000000000000000000007810000000000000F0200000000000000000000040FFAA
:4D29CF0000000000000000000000000000000000000000000000000000000000100000000000000000000000000000000000000000000000000000000000000000000000000000000000000000000088FE25
:4D2A1C00000000000000000000000000000000000000000000002301000000003012000000000000000000000000000000000000000000000000006024000000000000C0480000000000000000000090FCEF
:4D2A6900000000800000000000000000010000000000000000400000000000008420000000000000000000000000000000000000000010000040000800002000000000100000000000000000000000F8FF3C
:4D2AB600000000000000000000000000000000000000000000000000000000002000000000000000000000000000000000000000000000000000000000000000000000000000000000000000000000B8FDFE
:4D2B03000000000006000000000000000C0000000000000000000301000000000C000000000000000000000000000000000000000000C0000000036010008001000000C0200000000000000000000068F86F
:4D2B5000080000004001000000000000800200000000000000000000000000000410000000000000000000000000000000000000000000280000A00001000050000000000200000000000000000000FAF94B
:4D2B9D000000000026010000000000004C02000000000000000013000000000010020000000000000000000000000000000000000000C0240000936014008049000000C0280000000000000000000018FCA1
:4D2BEA000000008007000000000000000F0000000000000000C00302000000003C080000000000000000000000000000000000000000F00000C003780000E001000000F00000000000000000000000F8FA11
:4D2C3700040000000000000000000000000000000000000000000000000000003000000000000000000000000000000000000000000000000000000000000000000000000000000000000000000000F9F92A
:4D2C84000000000046020000000000008C04000000000000000023010000000030120000000000000000000000000000000000000000C0480000236124008091000000C0480000000000000000000078F98B
:4D2CD10000000080000000000000000001000000000000000040080200000000842000000000000000000000000000000000000000001000004000084200200000000010840000000000000000000078FF82
:4D2D1E00000000000000000000000000000000000000000000000000000000002000000000000000000000000000000000000000000000000000000000000000000000000000000000000000000000B8FD93
:4D2D6B000000000006010000000000000C0200000000000000C00000000000000C000000000000000000000000000000000000000000C020000083180000804100000030000000000000000000000020F9B5
:4D2DB80008000000100000000000000020000000000000000040120100000000042200000000000000000000000000000000000000000002000008482200000400000090880000000000000000000072FD1E
:4D2E05000000000046010000000000008C0200000000000000000B000000000090000000000000000000000000000000000000000000C0280000A36001008041000000C0020000000000000000000008FE9B
:4D2E52000000008007000000000000000F0000000000000000C08300000000003C080000000000000000000000000000000000000000F00000C003781000E001000000F02000000000000000000000F0F901
:4D2E9F0004000000000000000000000000000000000000000000010000000000300000000000000000000000000000000000000000000000000000200000000000000040000000000000000000000099FABE
:4D2EEC000000000046020000000000008C04000000000000000023010000000030120000000000000000000000000000000000000000C0480000236124008091000000C0480000000000000000000078F921
:4D2F390000000080C000000000000000010800000000000000400802000000000400000000000000000000000000000000000000000010100040400842002030000000108400000000000000000000E0FA0C
:4D2F860000000000000000000000000000000000000000000000020000000000000000000000000000000000000000000000000000000000000000400000000000000080000000000000000000000058F9EB
:4D2FD300000000800104000000000000030800000000000000C000000000000030000000000000000000000000000000000000000000308000C0001800006000010000300000000000000000000000C0FF59
:4D3020000800008004000000000000000900000000000000004010010000000000090000000000000000000000000000000000000000900000401209220020010000001088000000000000000000004AFF65
:4D306D000000000026000000000000004C00000000000000000011000000000030020000000000000000000000000000000000000000C004000013200200800900000040040000000000000000000080F922
:4D30BA000000008007010000000000000F0200000000000000C08300000000003C080000000000000000000000000000000000000000F02000C083781000E041000000F0200000000000000000000040FF5E
:4D310700040000000200000000000000040000000000000000000300000000000000000000000000000000000000000000000000000040000000016000008000000000C0000000000000000000000031FC60
:4D3154000000000046020000000000008C04000000000000000023010000000030120000000000000000000000000000000000000000C0480000236124008091000000C0480000000000000000000078F9B6
:4D31A10000000080C01000000000000001080000000000000040000000000000040000000000000000000000000000000000000000001010004040080000203000000010000000000000000000000060FBE1
:4D31EE0000000000040000000000000008000000000000000000000000000000000000000000000000000000000000000000000000008000000002000000000100000000000000000000000000000028F9E4
:4D323B000000008001C42000000000000308000000000000000000000000000030080000000000000000000000000000000000000000308000C000000000600001000000000000000000000000000080FA53
:4D328800080000800000020000000000010000000000000000000301000000008000000000000000000000000000000000000000000010000040106120002000000000C04000000000000000000000CAFB24
:4D32D5000000000022C128000000000044020000000000000000200000000000300800000000000000000000000000000000000000004024000091000400804800000000080000000000000000000038F909
:4D3322000000008007F00000000000000F0000000000000000C08300000000003C000000000000000000000000000000000000000000F00000C003781000E001000000F02000000000000000000000F8FE37
:4D336F000400000006000000000000000C00000000000000000003000000000000000000000000000000000000000000000000000000C0000000036020008001000000C0800000000000000000000089F873
:4D33BC000000000046C24800000000008C04000000000000000093000000000030120000000000000000000000000000000000000000C0480000236100008091000000C0040000000000000000000018FC9A
:4D34090000000080C01082000000000001080000000000000040100200000000042100000000000000000000000000000000000000001010004040080100203084000010020000000000000000840038F8E1
:4D345600000000000000000000000000000000000000000000000000000000000000000000000000000000000000000000000000000000000000000020000000001000004000000000000000000010C8F9E8
:4D34A300000000800130000000000000030000000000000000C00000000000000C000000000000000000000000000000000000000000300000C00018000060000C0000300000000000000000000C00E0FAD2
:4D34F000080000802492440000000000490400000000000000401201000000002410000000000000000000000000000000000000000090440040224A220020892410009088000000000000000024118AF8EB
:4D353D000000000016C12200000000002C0200000000000000008B0000000000B0080000000000000000000000000000000000000000C02200008B6011008045B00800C0220000000000000000B00838FDAD
:4D358A000000008007F00000000000000F0000000000000000C00300000000003C000000000000000000000000000000000000000000F00000C003780000E0013C0000F00000000000000000003C0010FEED
:4D35D700040000000240000000000000040000000000000000000100000000001000000000000000000000000000000000000000000040000000012000008000100000400000000000000000001000E1FE2C
:4D3624000000000046C24800000000008C04000000000000000023010000000030120000000000000000000000000000000000000000C0480000236124008091301200C0480000000000000000301288FC42
:4D36710000000080C01082000000000001080000000000000040000000000000842000000000000000000000000000000000000000001010004040080100200004000010020000000000000000840090FA60
:4D36BE0000000000048000000000000008000000000000000000000000000000000000000000000000000000000000000000000000008000000002402000000000000080400000000000000000201010F859
:4D370B00000000800130000000000000030000000000000000008300000000000C000000000000000000000000000000000000000000300000C0001800000000300800300000000000000000000C00B8FBFF
:4D375800080000802012440000000000410400000000000000000800000000002422000000000000000000000000000000000000000010440040200A22008081800000108800000000000000000411F2FF94
:4D37A50000000000424128000000000084020000000000000000830000000000300A000000000000000000000000000000000000000040280000A1201400000430080040280000000000000000100AE0FE10
:4D37F2000000008007F00000000000000F0000000000000000C00300000000003C000000000000000000000000000000000000000000F00000C003780000E0413C0000F00000000000000000003C0010FA47
:4D383F000400000006C00000000000000C00000000000000000000000000000010000000000000000000000000000000000000000000C0000000036000008001000000C0000000000000000000300029FF9A
:4D388C000000000046C24800000000008C04000000000000000023010000000030120000000000000000000000000000000000000000C0480000236124008041301200C0480000000000000000301200F9B3
:4D38D90000000080001000000000000001000000000000000040100200000000042100000000000000000000000000000000000000001000004000080000203084000010000000000000000000040010FC4E
:4D39260000000000000000000000000000000000000000000000020000000000200000000000000000000000000000000000000000000000000000000000000120100000000000000000000000000098FE6B
:4D397300000000000000000000000000000000000000000000C00000000000000C000000000000000000000000000000000000000000000000000000000060000C000000000000000000000000300848FA55
:4D39C0000800000006C24000000000000C04000000000000004010010000000004100000000000000000000000000000000000000000C0400000036120002088041000C040000000000000000080003AFA41
:4D3A0D0000000000100024000000000020000000000000000000810000000000100800000000000000000000000000000000000000000002000008000000804010080000000000000000000000300A78FFEC
:4D3A5A000000008007F10000000000000F0200000000000000C00300000000003C000000000000000000000000000000000000000000F02000C083781000E0013C0000F02000000000000000003C0080FFD4
:4D3AA7000400000006C00000000000000C00000000000000000003000000000030000000000000000000000000000000000000000000C0000000036020008001300000C0000000000000000000000009FF0D
:4D3AF4000000000006C18000000000000C02000000000000000023010000000030120000000000000000000000000000000000000000C0200000836002008091301200C00001000000000000003012C0F9F6
:4D3B410000000000000000000000000000000000000000000000000000000000000000000000000000000000000000000000000000000000000000000000000000000000000000000000000000000098FFA0
:4D3B8E0020000480001000024000080001200004800010000240000800012000040000000000000000000000000000000020000480001000024000080001200004800010000240000800012000040098FF0F
:4D3BDB0000000000000000000000000000000000000000000000000000000000000000000000000000000000000000000000000000000000000000000000000000000000000000000000000000000098FF06
:4D3C2800280004800010000240000800012000048000100002400008000120000400000000000000000000000000000000200004800010000240000800012000048000100002400008000120000400B2FD54
:4D3C750000000000048000000000000008000000000000000000020000000000200000000000000000000000000000000000000000008000000002400000000120000080000000000000000000200040FF92
:4D3CC20020000480001000024000080001200004800010000240000800012000040000000000000000000000000000000020000480001000024000080001200004800010000240000800012000040098FFDA
:4D3D0F00040000000000000000000000000000000000000000000000000000000000000000000000000000000000000000000000000000000000000000000000000000000000000000000000000000C9FAA0
:4D3D5C0020000480001000024000080001200004800010000240000800012000040000000000000000000000000000000020000480001000024000080001200004800010000240000800012000040098FF3F
:4D3DA90000000000000000000000000000000000000000000000800000000000000000000000000000000000000000000000000000000000000000000000000000000000000000000000000000000090FFBE
:4D3DF60000000000000000000000000000000000000000000000000000000000000000000000000000000000000000000000000000000000000000000000000000000000000000000000000000000098FFE9
:4D3E4300000000000000000000000000000000000000000000000000000000000000000000000000000000000000000000000000000000000000000000002000000000000000000000000000000000B8FD5D
:4D3E900000000000000000000000000000000000000000000000000000000000000000000000000000000000000000000000000000000000000000000000000000000000000000000000000000000098FF4E
:4D3EDD00000000000000400000000000000000000000000000000000000000004000000000000000000000000000000000000000000000000000000000000000400000000000000000000000000000D8FB05
:4D3F2A00000000001000000000000000200000000000000000000000000000000000000000000000000000000000000000000000000000020000000000000004000000000000000000000000000000C8FC50
:4D3F770000000000000000000000000000000000000000000000000000000000000000000000000000000000000000000000000000000080000000000000000000000000000000000000000000000018FF66
:4D3FC400000000000000000000000000000000200000000000000000000000001000000000000000000000000000000000000000000000000000000000000000000000000000000000000000000000A8FEDA
:4D40110000000000000000000000000000000004000000000000000000000000040000000000000000000000000000000000000000000040000000000000000000000000000000000000000000000098FF83
:4D405E0080000000000000000000000000000000000000000000000000000000200000000000000000000000000000000000000000000000000000000000000000000000000000000000000000000038FD40
:4D40AB0000010000000000000000000000000000000000000000000000000000000000000000000000000000000000000000000000000000000000000000000000000000000000000000000000000098FE31
:4D40F80000000000000000000000000000000000000000000000000000000000100000000000000000000000000000000000000000000000000000000000000000000000000000000000000000000088FEE5
:4D41450000000000000000000000000000000000000000000000000000000000000000000000000000000000000000000000000000000000000000000000000000000000000000000000000000000098FF96
:4D41920000000000000000000000000000000000000000000000000000000000000000000000000000000000000000000000000000000000000000000000000000000000000000000000000000000098FF49
:4D41DF0000000000000000000000000000000000000000000000000000000000000000000000000000000000000000000000000000000000000000000000000000000000000000000000000000000098FFFC
:4D422C0000000000000000000000000000000000000000000000000000000000000000000000000000000000000000000000000000000000000000000000000000000000000000000000000000000098FFAE
:4D42790000000000000000000000000000000000000000000000000000000000000000000000000000000000000000000000000000000000000000000000000000000000000000000000000000000098FF61
:4D42C60000000000000000000000000000000000000000000000000000000000000000000000000000000000000000000000000000000000000000000000000000000000000000000000000000000098FF14
:4D43130000000000000000000000000000000000000000000000000000000000000000000000000000000000000000000000000000000000000000000000000000000000000000000000000000000098FFC6
:4D43600000000000000000000000000000000000000000000000000000000000000000000000000000000000000000000000000000000000000000000000000000000000000000000000000000000098FF79
:4D43AD0000000000000000000000000000000000000000000000000000000000000000000000000000000000000000000000000000000000000000000000000000000000000000000000000000000098FF2C
:4D43FA0000000000000000000000000000000000000000000000000000000000000000000000000000000000000000000000000000000000000000000000000000000000000000000000000000000098FFDF
:4D44470000000000000000000000000000000000000000000000000000000000000000000000000000000000000000000000000000000000000000000000000000000000000000000000000000000098FF91
:4D44940000000000000000000000000000000000000000000000000000000000000000000000000000000000000000000000000000000000000000000000000000000000000000000000000000000098FF44
:4D44E100000000000C8001000000000018000000000000000000060000000000200000000000000000000000000000000000000000008001000006C000000003200000800100000000000000002000B0FE0A
:4D452E0000000000000000000000000000000000000000000000000000000000000000000000000000000000000000000000000000000000000000000000000000000000000000000000000000000098FFA9
:4D457B0000000080000000000000000000000000000000000000000000000000000000000000000000000000000000000000000000000000000000000000000000000000000000000000000000000018FF5C
:4D45C80000000000000000000000000000000000000000000000000000000000000000000000000000000000000000000000000000000000000000000000000000000000000000000000000000000098FF0F
:4D46150000000000000010000000000000000000000000000000400000000000000400000000000000000000000000000000000000000000000000000000000000000000000000000000000000000088FB81
:4D466200000000000000000000000000000000000000000000004000000000000004000000000000000000000000000000000000000000000000004008000000200000801000000000000000002000C8FCEB
:4D46AF0000000000000000000000000000000000000000000000000000000000000000000000000000000000000000000000000000000000000000000000000000000000020000000000000000000098FD27
:4D46FC0000000000000000000000000000000000000000000000000000000000000000000000000000000000000000000000000000000000000000000000000000000000000000000000000000000098FFDA
:4D47490000000000000000000000000000000000000000000000000000000000000000000000000000000000000000000000000000000000000000000000000000000000000000000000000000000098FF8C
:4D47960000000000000000000000000000000000000000000000000000000000000000000000000000000000000000000000000000001000004000000000000000000000000000000000000000000098FAF4
:4D47E30000000000000000000000000000000000000000000000000000000000000000000000000000000000000000000000000000000000000000100000000000000000000000000000000000000088FEF3
:4D48300000000000000000000000000000000000000000000000000000000000000000000000000000000000000000000000000000000000000000100000000000000000000000000000000000000088FEA5
:4D487D0000000000000000000000000000000000000000000000000000000000000000000000000000000000000000000000000000000000000000000000000000000000000000000000000000000098FF57
:4D48CA00000000000000000000000000000020000000000000000100000000001008000000000000000000000000000000000000000000000000000000000000100004800000000000000000000000D8FDFF
:4D49170000000000008002000000000000000001000000000040500000000000042000000000000000000000000000000000000000000000000000000A280005048000101400000000000000000000A0FE9F
:4D49640000000000002002000000900000000000000000000000002000000000000000000000000000000000000000000000000000002000008000000020000000000020000000000000000000300018FD0F
:4D49B10000000000000000000000000000000000000000000000001000000000000000000000000000000000000000000000000000000000000000000000000000000000000000000000000000080010FE93
:4D49FE0000000000000000000000000000000000000000000000000000000000000000000000000000000000000000000000000000000000000000000000000000000000000000000000000000100088FED6
:4D4A4B0000000000000000000000000000000000000000000000000000000000000000000000000000000000000000000000000000000000000000000000000000000000000000000000000000000098FF87
:4D4A980000000000080001000000000010000000000000000000000000000000000000000000000000000000000000000000000000000001000000800000000200000000800000000000000000000020FF96
:4D4AE500000000000000000000000000200000000000000000000000000000000000000000000000000000000000000000000000000000000000000000000000000000000000000000000000000000B8FFAD
:4D4B320000000000000000000000000000000000000000000000000000000000000000000000000000000000000000000000000000000000000000000000000000000000000000000000000000000098FF9F
:4D4B7F00000000000000000000000000000000000000000000000000000000000008000000000000000000000000000000000000000000000000800000000000000000002000000000000000000000B8FD8C
:4D4BCC0000000000000000000000000000000000000000000080040000000000000000000000000000000000000000000000000000000000000004000000000000000000000000000000000000400018FBC1
:4D4C190000000000000000000000000000000000000000000000000000000000000000000000000000000000000000000000000000000000000000000000000000000000000000000000000000000098FFB7
:4D4C660000000000000000000000000000000000000000000000000000000000000000000000000000000000000000000000000000000000000000000000000000000000000000000000000000000098FF6A
:4D4CB30000000000000000000000000000000000000000000000000000000000000000000000000000000000000000000000000000000000000000000000000000000000000000000000000000000098FF1D
:4D4D000000000000000000000000000000000000000000000000000000000000000000000000000000000000000000000000000000000000000000000000000000000000000000000000000000000098FFCF
:4D4D4D0000000000000000000000000000000000000000000000000000000000000000000000000000000000000000000000000000000000000000000000000000000000000000000000000000000098FF82
:4D4D9A0000000000000000000000000000000000000000000000000000000000000000000000000000000000000000000000000000000000000000000000000000000000000000000000000000000098FF35
:4D4DE70000000000000000000000000000000000000000000000000000000000000000000000000000000000000000000000000000000000000000000000000000000000000000000000000000000098FFE8
:4D4E340000000000000000000000000000000000000000000000000000000000000000000000000000000000000000000000000000000000000000000000000000000000000000000000000000000098FF9A
:4D4E810000000000000000000000000000000000000000000000000000000000000000000000000000000000000000000000000000000000000000000000000000000000000000000000000000000098FF4D
:4D4ECE0000000000000000000000000000000000000000000000000000000000000000000000000000000000000000000000000000000000000000000000000000000000000000000000000000000098FF00
:4D4F1B0000000000000000000000000000000000000000000000000000000000000000000000000000000000000000000000000000000000000000000000000000000000000000000000000000000098FFB2
:4D4F680000000000000000000000000000000000000000000000000000000000000000000000000000000000000000000000000000000000000000000000000000000000000000000000000000000098FF65
:4D4FB50000000000000000000000000000000000000000000000000000000000000000000000000000000000000000000000000000000000000000000000000000000000000000000000000000000098FF18
:4D50020000000000000000000000000000000000000000000000000000000000000000000000000000000000000000000000000000000000000000000000000000000000000000000000000000000098FFCA
:4D504F0000000000000000000000000000000000000000000000000000000000000000000000000000000000000000000000000000000000000000000000000000000000000000000000000000000098FF7D
:4D509C0000000000000000000000000000000000000000000000000000000000000000000000000000000000000000000000000000000000000000000000000000000000000000000000000000000098FF30
:4D50E90000000000000000000000000000000000000000000000000000000000000000000000000000000000000000000000000000000000000000000000000000000000000000000000000000000098FFE3
:4D513600080000000000000000000000000000000000000000000000000000000000000000000000000000000000000000000000000000000000000000000000000000000000000000000000000000B2FD75
:4D51830000000000000000000000000000000000000000000000000000000000000000000000000000000000000000000000000000000000000000000000000000000000000000000000000000000098FF48
:4D51D00000000000000000000000000000000000000000000000000000000000000000000000000000000000000000000000000000000000000000000000000000000000000000000000000000000098FFFB
:4D521D00040000000000000000000000000000000000000000000000000000000000000000000000000000000000000000000000000000000000000000000000000000000000000000000000000000C9FA7D
:4D526A0000000000000000000000000000000000000000000000000000000000000000000000000000000000000000000000000000000000000000000000000000000000000000000000000000000098FF60
:4D52B70000000000000000000000000000000000000000000000000000000000000000000000000000000000000000000000000000000000000000000000000000000000000000000000000000000098FF13
:4D53040000000000000000000000000000000000000000000000000000000000000000000000000000000000000000000000000000000000000000000000000000000000000000000000000000000098FFC5
:4D53510000000000000000000000000000000000000000000000000000000000000000000000000000000000000000000000000000000000000000000000000000000000000000000000000000000098FF78
:4D539E00080000000000000000000000000000000000000000000000000000000000000000000000000000000000000000000000000000000000000000000000000000000000000000000000000000B2FD0B
:4D53EB0000000000000000000000000000000000000000000000000000000000000000000000000000000000000000000000000000000000000000000000000000000000000000000000000000000098FFDE
:4D54380000000000000000000000000000000000000000000000000000000000000000000000000000000000000000000000000000000000000000000000000000000000000000000000000000000098FF90
:4D548500040000000000000000000000000000000000000000000000000000000000000000000000000000000000000000000000000000000000000000000000000000000000000000000000000000C9FA13
:4D54D20000000000000000000000000000000000000000000000000000000000000000000000000000000000000000000000000000000000000000000000000000000000000000000000000000000098FFF6
:4D551F0000000000000000000000000000000000000000000000000000000000000000000000000000000000000000000000000000000000000000000000000000000000000000000000000000000098FFA8
:4D556C0000000000000000000000000000000000000000000000000000000000000000000000000000000000000000000000000000000000000000000000000000000000000000000000000000000098FF5B
:4D55B90000000000000000000000000000000000000000000000000000000000000000000000000000000000000000000000000000000000000000000000000000000000000000000000000000000098FF0E
:4D560600080000000000000000000000000000000000000000000000000000000000000000000000000000000000000000000000000000000000000000000000000000000000000000000000000000B2FDA0
:4D56530000000000000000000000000000000000000000000000000000000000000000000000000000000000000000000000000000000000000000000000000000000000000000000000000000000098FF73
:4D56A00000000000000000000000000000000000000000000000000000000000000000000000000000000000000000000000000000000000000000000000000000000000000000000000000000000098FF26
:4D56ED00040000000000000000000000000000000000000000000000000000000000000000000000000000000000000000000000000000000000000000000000000000000000000000000000000000C9FAA9
:4D573A0000000000000000000000000000000000000000000000000000000000000000000000000000000000000000000000000000000000000000000000000000000000000000000000000000000098FF8B
:4D57870000000000000000000000000000000000000000000000000000000000000000000000000000000000000000000000000000000000000000000000000000000000000000000000000000000098FF3E
:4D57D40000000000000000000000000000000000000000000000000000000000000000000000000000000000000000000000000000000000000000000000000000000000000000000000000000000098FFF1
:4D58210000000000000000000000000000000000000000000000000000000000000000000000000000000000000000000000000000000000000000000000000000000000000000000000000000000098FFA3
:4D586E00080000000000000000000000000000000000000000000000000000000000000000000000000000000000000000000000000000000000000000000000000000000000000000000000000000B2FD36
:4D58BB0000000000000000000000000000000000000000000000000000000000000000000000000000000000000000000000000000000000000000000000000000000000000000000000000000000098FF09
:4D59080000000000000000000000000000000000000000000000000000000000000000000000000000000000000000000000000000000000000000000000000000000000000000000000000000000098FFBB
:4D595500040000000000000000000000000000000000000000000000000000000000000000000000000000000000000000000000000000000000000000000000000000000000000000000000000000C9FA3E
:4D59A20000000000000000000000000000000000000000000000000000000000000000000000000000000000000000000000000000000000000000000000000000000000000000000000000000000098FF21
:4D59EF0000000000000000000000000000000000000000000000000000000000000000000000000000000000000000000000000000000000000000000000000000000000000000000000000000000098FFD4
:4D5A3C0000000000000000000000000000000000000000000000000000000000000000000000000000000000000000000000000000000000000000000000000000000000000000000000000000000098FF86
:4D5A890000000000000000000000000000000000000000000000000000000000000000000000000000000000000000000000000000000000000000000000000000000000000000000000000000000098FF39
:4D5AD600080000000000000000000000000000000000000000000000000000000000000000000000000000000000000000000000000000000000000000000000000000000000000000000000000000B2FDCC
:4D5B230000000000000000000000000000000000000000000000000000000000000000000000000000000000000000000000000000000000000000000000000000000000000000000000000000000098FF9E
:4D5B700000000000000000000000000000000000000000000000000000000000000000000000000000000000000000000000000000000000000000000000000000000000000000000000000000000098FF51
:4D5BBD00040000000000000000000000000000000000000000000000000000000000000000000000000000000000000000000000000000000000000000000000000000000000000000000000000000C9FAD4
:4D5C0A0000000000000000000000000000000000000000000000000000000000000000000000000000000000000000000000000000000000000000000000000000000000000000000000000000000098FFB6
:4D5C570000000000000000000000000000000000000000000000000000000000000000000000000000000000000000000000000000000000000000000000000000000000000000000000000000000098FF69
:4D5CA40000000000000000000000000000000000000000000000000000000000000000000000000000000000000000000000000000000000000000000000000000000000000000000000000000000098FF1C
:4D5CF10000000000000000000000000000000000000000000000000000000000000000000000000000000000000000000000000000000000000000000000000000000000000000000000000000000098FFCF
:4D5D3E00080000000000000000000000000000000000000000000000000000000000000000000000000000000000000000000000000000000000000000000000000000000000000000000000000000B2FD61
:4D5D8B0000000000000000000000000000000000000000000000000000000000000000000000000000000000000000000000000000000000000000000000000000000000000000000000000000000098FF34
:4D5DD80000000000000000000000000000000000000000000000000000000000000000000000000000000000000000000000000000000000000000000000000000000000000000000000000000000098FFE7
:4D5E2500040000000000000000000000000000000000000000000000000000000000000000000000000000000000000000000000000000000000000000000000000000000000000000000000000000C9FA69
:4D5E720000000000000000000000000000000000000000000000000000000000000000000000000000000000000000000000000000000000000000000000000000000000000000000000000000000098FF4C
:4D5EBF0000000000000000000000000000000000000000000000000000000000000000000000000000000000000000000000000000000000000000000000000000000000000000000000000000000098FFFF
:4D5F0C0000000000000000000000000000000000000000000000000000000000000000000000000000000000000000000000000000000000000000000000000000000000000000000000000000000098FFB1
:4D5F590000000000000000000000000000000000000000000000000000000000000000000000000000000000000000000000000000000000000000000000000000000000000000000000000000000098FF64
:4D5FA600080000000000000000000000000000000000000000000000000000000000000000000000000000000000000000000000000000000000000000000000000000000000000000000000000000B2FDF7
:4D5FF30000000000000000000000000000000000000000000000000000000000000000000000000000000000000000000000000000000000000000000000000000000000000000000000000000000098FFCA
:4D60400000000000000000000000000000000000000000000000000000000000000000000000000000000000000000000000000000000000000000000000000000000000000000000000000000000098FF7C
:4D608D00040000000000000000000000000000000000000000000000000000000000000000000000000000000000000000000000000000000000000000000000000000000000000000000000000000C9FAFF
:4D60DA0000000000000000000000000000000000000000000000000000000000000000000000000000000000000000000000000000000000000000000000000000000000000000000000000000000098FFE2
:4D61270000000000000000000000000000000000000000000000000000000000000000000000000000000000000000000000000000000000000000000000000000000000000000000000000000000098FF94
:4D61740020000480001000024000080001200004800010000240000800012000040000000000000000000000000000000020000480001000024000080001200004800010000240000800012000040098FF03
:4D61C10000000000000000000000000000000000000000000000000000000000000000000000000000000000000000000000000000000000000000000000000000000000000000000000000000000098FFFA
:4D620E00280004800010000240000800012000048000100002400008000120000400000000000000000000000000000000200004800010000240000800012000048000100002400008000120000400B2FD48
:4D625B0000000000000000000000000000000000000000000000000000000000000000000000000000000000000000000000000000000000000000000000000000000000000000000000000000000098FF5F
:4D62A80020000480001000024000080001200004800010000240000800012000040000000000000000000000000000000020000480001000024000080001200004800010000240000800012000040098FFCE
:4D62F500040000000000000000000000000000000000000000000000000000000000000000000000000000000000000000000000000000000000000000000000000000000000000000000000000000C9FA95
:4D63420020000480001000024000080001200004800010000240000800012000040000000000000000000000000000000020000480001000024000080001200004800010000240000800012000040098FF33
:4D638F0000000000000000000000000000000000000000000000000000000000000000000000000000000000000000000000000000000000000000000000000000000000000000000000000000000098FF2A
:4D63DC0000000000000000000000000000000000000000000000000000000000000000000000000000000000000000000000000000000000000000000000000000000000000000000000000000000098FFDD
:4D64290000000000000000000000000000000000000000000000000000000000000000000000000000000000000000000000000000000000000000000000000000000000000000000000000000000098FF8F
:4D64760000000000000000000000000000000000000000000000000000000000000000000000000000000000000000000000000000000000000000000000000000000000000000000000000000000098FF42
:4D64C30000000000000000000000000000000000000000000000000000000000000000000000000000000000000000000000000000000000000000000000000000000000000000000000000000000098FFF5
:4D65100000000000000000000000000000000000000000000000000000000000000000000000000000000000000000000000000000000000000000000000000000000000000000000000000000000098FFA7
:4D655D0000000000000000000000000000000000000000000000000000000000000000000000000000000000000000000000000000000000000000000000000000000000000000000000000000000098FF5A
:4D65AA0000000000000000000000000000000000000000000000000000000000000000000000000000000000000000000000000000000000000000000000000000000000000000000000000000000098FF0D
:4D65F70000000000000000000000000000000000000000000000000000000000000000000000000000000000000000000000000000000000000000000000000000000000000000000000000000000098FFC0
:4D66440000000000000000000000000000000000000000000000000000000000000000000000000000000000000000000000000000000000000000000000000000000000000000000000000000000098FF72
:4D66910000000000000000000000000000000000000000000000000000000000000000000000000000000000000000000000000000000000000000000000000000000000000000000000000000000098FF25
:4D66DE0000000000000000000000000000000000000000000000000000000000000000000000000000000000000000000000000000000000000000000000000000000000000000000000000000000098FFD8
:4D672B0000000000000000000000000000000000000000000000000000000000000000000000000000000000000000000000000000000000000000000000000000000000000000000000000000000098FF8A
:4D67780000000000000000000000000000000000000000000000000000000000000000000000000000000000000000000000000000000000000000000000000000000000000000000000000000000098FF3D
:4D67C50000000000000000000000000000000000000000000000000000000000000000000000000000000000000000000000000000000000000000000000000000000000000000000000000000000098FFF0
:4D68120000000000000000000000000000000000000000000000000000000000000000000000000000000000000000000000000000000000000000000000000000000000000000000000000000000098FFA2
:4D685F0000000000000000000000000000000000000000000000000000000000000000000000000000000000000000000000000000000000000000000000000000000000000000000000000000000098FF55
:4D68AC0000000000000000000000000000000000000000000000000000000000000000000000000000000000000000000000000000000000000000000000000000000000000000000000000000000098FF08
:4D68F90000000000000000000000000000000000000000000000000000000000000000000000000000000000000000000000000000000000000000000000000000000000000000000000000000000098FFBB
:4D69460000000000000000000000000000000000000000000000000000000000000000000000000000000000000000000000000000000000000000000000000000000000000000000000000000000098FF6D
:4D69930000000000000000000000000000000000000000000000000000000000000000000000000000000000000000000000000000000000000000000000000000000000000000000000000000000098FF20
:4D69E00000000000000000000000000000000000000000000000000000000000000000000000000000000000000000000000000000000000000000000000000000000000000000000000000000000098FFD3
:4D6A2D0000000000000000000000000000000000000000000000000000000000000000000000000000000000000000000000000000000000000000000000000000000000000000000000000000000098FF85
:4D6A7A0000000000000000000000000000000000000000000000000000000000000000000000000000000000000000000000000000000000000000000000000000000000000000000000000000000098FF38
:4D6AC70000000000000000000000000000000000000000000000000000000000000000000000000000000000000000000000000000000000000000000000000000000000000000000000000000000098FFEB
:4D6B140000000000000000000000000000000000000000000000000000000000000000000000000000000000000000000000000000000000000000000000000000000000000000000000000000000098FF9D
:4D6B610000000000000000000000000000000000000000000000000000000000000000000000000000000000000000000000000000000000000000000000000000000000000000000000000000000098FF50
:4D6BAE0000000000000000000000000000000000000000000000000000000000000000000000000000000000000000000000000000000000000000000000000000000000000000000000000000000098FF03
:4D6BFB0000000000000000000000000000000000000000000000000000000000000000000000000000000000000000000000000000000000000000000000000000000000000000000000000000000098FFB6
:4D6C480000000000000000000000000000000000000000000000000000000000000000000000000000000000000000000000000000000000000000000000000000000000000000000000000000000098FF68
:4D6C950000000000000000000000000000000000000000000000000000000000000000000000000000000000000000000000000000000000000000000000000000000000000000000000000000000098FF1B
:4D6CE20000000000000000000000000000000000000000000000000000000000000000000000000000000000000000000000000000000000000000000000000000000000000000000000000000000098FFCE
:4D6D2F0000000000000000000000000000000000000000000000000000000000000000000000000000000000000000000000000000000000000000000000000000000000000000000000000000000098FF80
:4D6D7C0000000000000000000000000000000000000000000000000000000000000000000000000000000000000000000000000000000000000000000000000000000000000000000000000000000098FF33
:4D6DC90000000000000000000000000000000000000000000000000000000000000000000000000000000000000000000000000000000000000000000000000000000000000000000000000000000098FFE6
:4D6E160000000000000000000000000000000000000000000000000000000000000000000000000000000000000000000000000000000000000000000000000000000000000000000000000000000098FF98
:4D6E630000000000000000000000000000000000000000000000000000000000000000000000000000000000000000000000000000000000000000000000000000000000000000000000000000000098FF4B
:4D6EB00000000000000000000000000000000000000000000000000000000000000000000000000000000000000000000000000000000000000000000000000000000000000000000000000000000098FFFE
:4D6EFD0000000000000000000000000000000000000000000000000000000000000000000000000000000000000000000000000000000000000000000000000000000000000000000000000000000098FFB1
:4D6F4A0000000000000000000000000000000000000000000000000000000000000000000000000000000000000000000000000000000000000000000000000000000000000000000000000000000098FF63
:4D6F970000000000000000000000000000000000000000000000000000000000000000000000000000000000000000000000000000000000000000000000000000000000000000000000000000000098FF16
:4D6FE40000000000000000000000000000000000000000000000000000000000000000000000000000000000000000000000000000000000000000000000000000000000000000000000000000000098FFC9
:4D70310000000000000000000000000000000000000000000000000000000000000000000000000000000000000000000000000000000000000000000000000000000000000000000000000000000098FF7B
:4D707E0000000000000000000000000000000000000000000000000000000000000000000000000000000000000000000000000000000000000000000000000000000000000000000000000000000098FF2E
:4D70CB0000000000000000000000000000000000000000000000000000000000000000000000000000000000000000000000000000000000000000000000000000000000000000000000000000000098FFE1
:4D71180000000000000000000000000000000000000000000000000000000000000000000000000000000000000000000000000000000000000000000000000000000000000000000000000000000098FF93
:4D71650000000000000000000000000000000000000000000000000000000000000000000000000000000000000000000000000000000000000000000000000000000000000000000000000000000098FF46
:4D71B20000000000000000000000000000000000000000000000000000000000000000000000000000000000000000000000000000000000000000000000000000000000000000000000000000000098FFF9
:4D71FF0000000000000000000000000000000000000000000000000000000000000000000000000000000000000000000000000000000000000000000000000000000000000000000000000000000098FFAC
:4D724C0000000000000000000000000000000000000000000000000000000000000000000000000000000000000000000000000000000000000000000000000000000000000000000000000000000098FF5E
:4D72990000000000000000000000000000000000000000000000000000000000000000000000000000000000000000000000000000000000000000000000000000000000000000000000000000000098FF11
:4D72E60000000000000000000000000000000000000000000000000000000000000000000000000000000000000000000000000000000000000000000000000000000000000000000000000000000098FFC4
:4D73330000000000000000000000000000000000000000000000000000000000000000000000000000000000000000000000000000000000000000000000000000000000000000000000000000000098FF76
:4D73800000000000000000000000000000000000000000000000000000000000000000000000000000000000000000000000000000000000000000000000000000000000000000000000000000000098FF29
