:020000040000FA
:4D000000FFFF62FF3900FFFFFFFFFFFFFFFFFFFFFFFFFFFFFFFFFFFFFFFFFFFFFFFFFFFFFFFFFFFFFFFFFFFFFFFFFFFFFFFFFFFFFFFFFFFFFFFFFFFFFFFFFFFFFFFFFFFFFFFFFFFFFFFFFFFFFFFFFFFFFF62
:4D004D00000C8001300006C00018000360000C8001300006C00018000360000C8001000000000000000000000000000000000C80013000B2C00018000360000C8081260006C0001800034D000C8001A8FDA0
:4D009A0000124002480009200124800490001240024800092001248004900012400200000000000000000000000000000000124002480015200124800490001240025400092001248004A800124002B8F998
:4D00E70000000000000000000000000000000000000000000000000000000000000000000000000000000000000000000000000000000000000000000000000000000000000000000000000000000098FF35
:4D01340000000000000000000000000000000000000000000000000000000000000000000000000000000000000000000000000000000000000000000000000000000000000000000000000000000098FFE7
:4D01810000000000000000000000000000000000000000000000000000000000000000000000000000000000000000000000000000000000000000000000000000000000000000000000000000000098FF9A
:4D01CE00000000000000000000000000000000000000000000000000000000000000000000000000000000400000000000000000000000000000000000000000000000000000000000000000000000D8FFCD
:4D021B0000000000000000000000000000000000000000000000000000000000000000000000000000000000000000000000000000000000000000000000000000000000000000000000000000000098FFFF
:4D02680000000000000000000000000000000000000000000000000000000000000000000000000000000000000000000000000000000000000000000000000000000000000000000000000000000098FFB2
:4D02B50000000000000000000000000000000000000000000000000000000000000000000000000000000000000000000000000000000000000000000000000000000000000000000000000000000098FF65
:4D03020000000000000000000000000000000000000000000000000000000000000000000000000000000000000000000000000000000000000000000000000000000000000000000000000000000098FF17
:4D034F0000000000000000000000000000000000000000000000000000000000000000000000000000000000000000000000000000000000000000000000000000000000000000000000000000000098FFCA
:4D039C0000000000000000000000000000000000000000000000000000000000000000000000000000000000000000000000000000000000000000000000000000000000000000000000000000000098FF7D
:4D03E90000000000000000000000000000000000000000000000000000000000000000000000000000000000000000000000000000000000000000000000000000000000000000000000000000000098FF30
:4D04360000000000000000000000000000000000000000000000000000000000000000000000000000000000000000000000000000000000000000000000000000000000000000000000000000000098FFE2
:4D04830000000000000000000000000000000000000000000000000000000000000000000000000000000000000000000000000000000000000000000000000000000000000000000000000000000098FF95
:4D04D00000000000000000000000000000000000000000000000000000000000000000000000000000000000000000000000000000000000000000000000000000000000000000000000000000000098FF48
:4D051D0000000000000000000000000000000000000000000000000000000000000000000000000000000000000000000000000000000000000000000000000000000000000000000000000000000098FFFA
:4D056A00080000000000000000000000000000000000000000000000000000000000000000000000000000000000000000000000000000000000000000000000000000000000000000000000000000B2FD8D
:4D05B70000000000000000000000000000000000000000000000000000000000000000000000000000000000000000000000000000000000000000000000000000000000000000000000000000000098FF60
:4D06040000000000000000000000000000000000000000000000000000000000000000000000000000000000000000000000000000000000000000000000000000000000000000000000000000000098FF12
:4D065100040000000000000000000000000000000000000000000000000000000000000000000000000000000000000000000000000000000000000000000000000000000000000000000000000000C9FA95
:4D069E0000000000000000000000000000000000000000000000000000000000000000000000000000000000000000000000000000000000000000000000000000000000000000000000000000000098FF78
:4D06EB0000000000000000000000000000000000000000000000000000000000000000000000000000000000000000000000000000000000000000000000000000000000000000000000000000000098FF2B
:4D07380000000000000000000000000000000000000000000000000000000000000000000000000000000000000000000000000000000000000000000000000000000000000000000000000000000098FFDD
:4D07850000000000000000000000000000000000000000000000000000000000000000000000000000000000000000000000000000000000000000000000000000000000000000000000000000000098FF90
:4D07D200080000000000000000000000000000000000000000000000000000000000000000000000000000000000000000000000000000000000000000000000000000000000000000000000000000B2FD23
:4D081F0000000000000000000000000000000000000000000000000000000000000000000000000000000000000000000000000000000000000000000000000000000000000000000000000000000098FFF5
:4D086C0000000000000000000000000000000000000000000000000000000000000000000000000000000000000000000000000000000000000000000000000000000000000000000000000000000098FFA8
:4D08B900040000000000000000000000000000000000000000000000000000000000000000000000000000000000000000000000000000000000000000000000000000000000000000000000000000C9FA2B
:4D09060000000000000000000000000000000000000000000000000000000000000000000000000000000000000000000000000000000000000000000000000000000000000000000000000000000098FF0D
:4D09530000000000000000000000000000000000000000000000000000000000000000000000000000000000000000000000000000000000000000000000000000000000000000000000000000000098FFC0
:4D09A00000000000000000000000000000000000000000000000000000000000000000000000000000000000000000000000000000000000000000000000000000000000000000000000000000000098FF73
:4D09ED0000000000000000000000000000000000000000000000000000000000000000000000000000000000000000000000000000000000000000000000000000000000000000000000000000000098FF26
:4D0A3A00080000000000000000000000000000000000000000000000000000000000000000000000000000000000000000000000000000000000000000000000000000000000000000000000000000B2FDB8
:4D0A870000000000000000000000000000000000000000000000000000000000000000000000000000000000000000000000000000000000000000000000000000000000000000000000000000000098FF8B
:4D0AD40000000000000000000000000000000000000000000000000000000000000000000000000000000000000000000000000000000000000000000000000000000000000000000000000000000098FF3E
:4D0B2100040000000000000000000000000000000000000000000000000000000000000000000000000000000000000000000000000000000000000000000000000000000000000000000000000000C9FAC0
:4D0B6E0000000000000000000000000000000000000000000000000000000000000000000000000000000000000000000000000000000000000000000000000000000000000000000000000000000098FFA3
:4D0BBB0000000000000000000000000000000000000000000000000000000000000000000000000000000000000000000000000000000000000000000000000000000000000000000000000000000098FF56
:4D0C080000000000000000000000000000000000000000000000000000000000000000000000000000000000000000000000000000000000000000000000000000000000000000000000000000000098FF08
:4D0C550000000000000000000000000000000000000000000000000000000000000000000000000000000000000000000000000000000000000000000000000000000000000000000000000000000098FFBB
:4D0CA200080000000000000000000000000000000000000000000000000000000000000000000000000000000000000000000000000000000000000000000000000000000000000000000000000000B2FD4E
:4D0CEF0000000000000000000000000000000000000000000000000000000000000000000000000000000000000000000000000000000000000000000000000000000000000000000000000000000098FF21
:4D0D3C0000000000000000000000000000000000000000000000000000000000000000000000000000000000000000000000000000000000000000000000000000000000000000000000000000000098FFD3
:4D0D8900040000000000000000000000000000000000000000000000000000000000000000000000000000000000000000000000000000000000000000000000000000000000000000000000000000C9FA56
:4D0DD60000000000000000000000000000000000000000000000000000000000000000000000000000000000000000000000000000000000000000000000000000000000000000000000000000000098FF39
:4D0E230000000000000000000000000000000000000000000000000000000000000000000000000000000000000000000000000000000000000000000000000000000000000000000000000000000098FFEB
:4D0E700000000000000000000000000000000000000000000000000000000000000000000000000000000000000000000000000000000000000000000000000000000000000000000000000000000098FF9E
:4D0EBD0000000000000000000000000000000000000000000000000000000000000000000000000000000000000000000000000000000000000000000000000000000000000000000000000000000098FF51
:4D0F0A00080000000000000000000000000000000000000000000000000000000000000000000000000000000000000000000000000000000000000000000000000000000000000000000000000000B2FDE3
:4D0F570000000000000000000000000000000000000000000000000000000000000000000000000000000000000000000000000000000000000000000000000000000000000000000000000000000098FFB6
:4D0FA40000000000000000000000000000000000000000000000000000000000000000000000000000000000000000000000000000000000000000000000000000000000000000000000000000000098FF69
:4D0FF100040000000000000000000000000000000000000000000000000000000000000000000000000000000000000000000000000000000000000000000000000000000000000000000000000000C9FAEC
:4D103E0000000000000000000000000000000000000000000000000000000000000000000000000000000000000000000000000000000000000000000000000000000000000000000000000000000098FFCE
:4D108B0000000000000000000000000000000000000000000000000000000000000000000000000000000000000000000000000000000000000000000000000000000000000000000000000000000098FF81
:4D10D80000000000000000000000000000000000000000000000000000000000000000000000000000000000000000000000000000000000000000000000000000000000000000000000000000000098FF34
:4D11250000000000000000000000000000000000000000000000000000000000000000000000000000000000000000000000000000000000000000000000000000000000000000000000000000000098FFE6
:4D117200080000000000000000000000000000000000000000000000000000000000000000000000000000000000000000000000000000000000000000000000000000000000000000000000000000B2FD79
:4D11BF0000000000000000000000000000000000000000000000000000000000000000000000000000000000000000000000000000000000000000000000000000000000000000000000000000000098FF4C
:4D120C0000000000000000000000000000000000000000000000000000000000000000000000000000000000000000000000000000000000000000000000000000000000000000000000000000000098FFFE
:4D125900040000000000000000000000000000000000000000000000000000000000000000000000000000000000000000000000000000000000000000000000000000000000000000000000000000C9FA81
:4D12A60000000000000000000000000000000000000000000000000000000000000000000000000000000000000000000000000000000000000000000000000000000000000000000000000000000098FF64
:4D12F30000000000000000000000000000000000000000000000000000000000000000000000000000000000000000000000000000000000000000000000000000000000000000000000000000000098FF17
:4D13400000000000000000000000000000000000000000000000000000000000000000000000000000000000000000000000000000000000000000000000000000000000000000000000000000000098FFC9
:4D138D0000000000000000000000000000000000000000000000000000000000000000000000000000000000000000000000000000000000000000000000000000000000000000000000000000000098FF7C
:4D13DA00080000000000000000000000000000000000000000000000000000000000000000000000000000000000000000000000000000000000000000000000000000000000000000000000000000B2FD0F
:4D14270000000000000000000000000000000000000000000000000000000000000000000000000000000000000000000000000000000000000000000000000000000000000000000000000000000098FFE1
:4D14740000000000000000000000000000000000000000000000000000000000000000000000000000000000000000000000000000000000000000000000000000000000000000000000000000000098FF94
:4D14C100040000000000000000000000000000000000000000000000000000000000000000000000000000000000000000000000000000000000000000000000000000000000000000000000000000C9FA17
:4D150E0000000000000000000000000000000000000000000000000000000000000000000000000000000000000000000000000000000000000000000000000000000000000000000000000000000098FFF9
:4D155B0000000000000000000000000000000000000000000000000000000000000000000000000000000000000000000000000000000000000000000000000000000000000000000000000000000098FFAC
:4D15A80020000480001000024000080001200004800010000240000800012000040000000000000000000000000000000020000480001000024000080001200004800010000240000800012000040098FF1B
:4D15F50000000000000000000000000000000000000000000000000000000000000000000000000000000000000000000000000000000000000000000000000000000000000000000000000000000098FF12
:4D164200280004800010000240000800012000048000100002400008000120000400000000000000000000000000000000200004800010000240000800012000048000100002400008000120000400B2FD60
:4D168F0000000000000000000000000000000000000000000000000000000000000000000000000000000000000000000000000000000000000000000000000000000000000000000000000000000098FF77
:4D16DC0020000480001000024000080001200004800010000240000800012000040000000000000000000000000000000020000480001000024000080001200004800010000240000800012000040098FFE6
:4D172900040000000000000000000000000000000000000000000000000000000000000000000000000000000000000000000000000000000000000000000000000000000000000000000000000000C9FAAC
:4D17760020000480001000024000080001200004800010000240000800012000040000000000000000000000000000000020000480001000024000080001200004800010000240000800012000040098FF4B
:4D17C30000000000000000000000000000000000000000000000000000000000000000000000000000000000000000000000000000000000000000000000000000000000000000000000000000000098FF42
:4D18100000000000000000000000000000000000000000000000000000000000000000000000000000000000000000000000000000000000000000000000000000000000000000000000000000000098FFF4
:4D185D0000000000000000000000000000000000000000000000000000000000000000000000000000000000000000000000000000000000000000000000000000000000000000000000000000000098FFA7
:4D18AA0000000000000000000000000000000000000000000000000000000000000000000000000000000000000000000000000000000000000000000000000000000000000000000000000000000098FF5A
:4D18F70000000000000000000000000000000000000000000000000000000000000000000000000000000000000000000000000000000000000000000000000000000000000000000000000000000098FF0D
:4D19440000000000000000000000000000000000000000000000000000000000000000000000000000000000000000000000000000000000000000000000000000000000000000000000000000000098FFBF
:4D19910000000000000000000000000000000000000000000000000000000000000000000000000000000000000000000000000000000000000000000000000000000000000000000000000000000098FF72
:4D19DE0000000000000000000000000000000000000000000000000000000000000000000000000000000000000000000000000000000000000000000000000000000000000000000000000000000098FF25
:4D1A2B0000000000000000000000000000000000000000000000000000000000000000000000000000000000000000000000000000000000000000000000000000000000000000000000000000000098FFD7
:4D1A780000000000000000000000000000000000000000000000000000000000000000000000000000000000000000000000000000000000000000000000000000000000000000000000000000000098FF8A
:4D1AC50000000000000000000000000000000000000000000000000000000000000000000000000000000000000000000000000000000000000000000000000000000000000000000000000000000098FF3D
:4D1B120000000000000000000000000000000000000000000000000000000000000000000000000000000000000000000000000000000000000000000000000000000000000000000000000000000098FFEF
:4D1B5F0000000000000000000000000000000000000000000000000000000000000000000000000000000000000000000000000000000000000000000000000000000000000000000000000000000098FFA2
:4D1BAC0000000000000000000000000000000000000000000000000000000000000000000000000000000000000000000000000000000000000000000000000000000000000000000000000000000098FF55
:4D1BF90000000000000000000000000000000000000000000000000000000000000000000000000000000000000000000000000000000000000000000000000000000000000000000000000000000098FF08
:4D1C460000000000000000000000000000000000000000000000000000000000000000000000000000000000000000000000000000000000000000000000000000000000000000000000000000000098FFBA
:4D1C930000000000000000000000000000000000000000000000000000000000000000000000000000000000000000000000000000000000000000000000000000000000000000000000000000000098FF6D
:4D1CE00000000000000000000000000000000000000000000000000000000000000000000000000000000000000000000000000000000000000000000000000000000000000000000000000000000098FF20
:4D1D2D0000000000000000000000000000000000000000000000000000000000000000000000000000000000000000000000000000000000000000000000000000000000000000000000000000000098FFD2
:4D1D7A0000000000000000000000000000000000000000000000000000000000000000000000000000000000000000000000000000000000000000000000000000000000000000000000000000000098FF85
:4D1DC70000000000000000000000000000000000000000000000000000000000000000000000000000000000000000000000000000000000000000000000000000000000000000000000000000000098FF38
:4D1E140000000000000000000000000000000000000000000000000000000000000000000000000000000000000000000000000000000000000000000000000000000000000000000000000000000098FFEA
:4D1E610000000000000000000000000000000000000000000000000000000000000000000000000000000000000000000000000000000000000000000000000000000000000000000000000000000098FF9D
:4D1EAE0000000000000000000000000000000000000000000000000000000000000000000000000000000000000000000000000000000000000000000000000000000000000000000000000000000098FF50
:4D1EFB0000000000000000000000000000000000000000000000000000000000000000000000000000000000000000000000000000000000000000000000000000000000000000000000000000000098FF03
:4D1F480000000000000000000000000000000000000000000000000000000000000000000000000000000000000000000000000000000000000000000000000000000000000000000000000000000098FFB5
:4D1F950000000000000000000000000000000000000000000000000000000000000000000000000000000000000000000000000000000000000000000000000000000000000000000000000000000098FF68
:4D1FE20000000000000000000000000000000000000000000000000000000000000000000000000000000000000000000000000000000000000000000000000000000000000000000000000000000098FF1B
:4D202F0000000000000000000000000000000000000000000000000000000000000000000000000000000000000000000000000000000000000000000000000000000000000000000000000000000098FFCD
:4D207C0000000000000000000000000000000000000000000000000000000000000000000000000000000000000000000000000000000000000000000000000000000000000000000000000000000098FF80
:4D20C90000000000000000000000000000000000000000000000000000000000000000000000000000000000000000000000000000000000000000000000000000000000000000000000000000000098FF33
:4D21160000000000000000000000000000000000000000000000000000000000000000000000000000000000000000000000000000000000000000000000000000000000000000000000000000000098FFE5
:4D21630000000000000000000000000000000000000000000000000000000000000000000000000000000000000000000000000000000000000000000000000000000000000000000000000000000098FF98
:4D21B00000000000000000000000000000000000000000000000000000000000000000000000000000000000000000000000000000000000000000000000000000000000000000000000000000000098FF4B
:4D21FD0000000000000000000000000000000000000000000000000000000000000000000000000000000000000000000000000000000000000000000000000000000000000000000000000000000098FFFE
:4D224A0000000000000000000000000000000000000000000000000000000000000000000000000000000000000000000000000000000000000000000000000000000000000000000000000000000098FFB0
:4D22970000000000000000000000000000000000000000000000000000000000000000000000000000000000000000000000000000000000000000000000000000000000000000000000000000000098FF63
:4D22E40000000000000000000000000000000000000000000000000000000000000000000000000000000000000000000000000000000000000000000000000000000000000000000000000000000098FF16
:4D23310000000000000000000000000000000000000000000000000000000000000000000000000000000000000000000000000000000000000000000000000000000000000000000000000000000098FFC8
:4D237E0000000000000000000000000000000000000000000000000000000000000000000000000000000000000000000000000000000000000000000000000000000000000000000000000000000098FF7B
:4D23CB0000000000000000000000000000000000000000000000000000000000000000000000000000000000000000000000000000000000000000000000000000000000000000000000000000000098FF2E
:4D24180000000000000000000000000000000000000000000000000000000000000000000000000000000000000000000000000000000000000000000000000000000000000000000000000000000098FFE0
:4D24650000000000000000000000000000000000000000000000000000000000000000000000000000000000000000000000000000000000000000000000000000000000000000000000000000000098FF93
:4D24B20000000000000000000000000000000000000000000000000000000000000000000000000000000000000000000000000000000000000000000000000000000000000000000000000000000098FF46
:4D24FF0000000000000000000000000000000000000000000000000000000000000000000000000000000000000000000000000000000000000000000000000000000000000000000000000000000098FFF9
:4D254C0000000000000000000000000000000000000000000000000000000000000000000000000000000000000000000000000000000000000000000000000000000000000000000000000000000098FFAB
:4D25990000000000000000000000000000000000000000000000000000000000000000000000000000000000000000000000000000000000000000000000000000000000000000000000000000000098FF5E
:4D25E60000000000000000000000000000000000000000000000000000000000000000000000000000000000000000000000000000000000000000000000000000000000000000000000000000000098FF11
:4D26330000000000000000000000000000000000000000000000000000000000000000000000000000000000000000000000000000000000000000000000000000000000000000000000000000000098FFC3
:4D26800000000000000000000000000000000000000000000000000000000000000000000000000000000000000000000000000000000000000000000000000000000000000000000000000000000098FF76
:4D26CD0000000000000000000000000000000000000000000000000000000000000000000000000000000000000000000000000000000000000000000000000000000000000000000000000000000098FF29
:4D271A0000000000000000000000000000000000000000000000000000000000000000000000000000000000000000000000000000000000000000000000000000000000000000000000000000000098FFDB
:4D27670000000000000000000000000000000000000000000000000000000000000000000000000000000000000000000000000000000000000000000000000000000000000000000000000000000098FF8E
:4D27B40000000000000000000000000000000000000000000000000000000000000000000000000000000000000000000000000000000000000000000000000000000000000000000000000000000098FF41
:4D280100209000800000004208002844002000008040108800000000000020200420000000000000000000000000000000A0108488801018004060084401000094200010408210000821002080040680F896
:4D284E00000000000000000000000000000000000000020000000000000000000000000000000000000000000000000000008000000000000000000000000000000000000000000000000000000000B0FD0E
:4D289B00000001000602001E00003800008081008003F0400000000000008000000000000000000000000000000000000060003C0004F14000C00379000C00001C0000800000000078200080003C0020F83C
:4D28E800800800000000001A02006808000000008040D808000000000000004110420000000000000000000000000000002008250812D00800401368080C0000B4200040220810006804000001B610D0FA03
:4D293500000000002601000009000024008049000006004800000000000000900002000000000000000000000000000000800130004002480000200124800100001200004800010000240000900012A8FE90
:4D298200600001800100001600001800006000008007B10000000000000060011C0800000000000000000000000000000060413C8803B00000C00258000300000C000070000E040058000060012C0050FFE4
:4D29CF00008000000600001800006000008001000006C000000000000000000020000000000000000000000000000000008001101000C1000000036000000000300000000010000060000000403000E8F9A0
:4D2A1C0000040000460100900400601200804500000488240000000000000045101200000000000000000000000000000080013201228024000092401240010030090040884804004012000009200988FD4B
:4D2A6900200005800000004A08000820002000008080508802000000000020841401000000000000000000000000000000202004A1105418024061284401240004A20010408A400028210120101506ECFB7D
:4D2AB60000000000000000000000000000000000000000000000000000000000002000000000000000000000000000000000000000000000000000000000000000000000000010000000000000000088FD1E
:4D2B0300008030100602000E000040100080810000027140180800000000E08110200000000000000000000000000000000001008007724018C80139000000003C0006822008000339200CE4011C00C0FC95
:4D2B5000080000000000001A02002004000000000044D008000000000000A011A000000000000000000000000000000000804410A046D0080040136808048829B420004000102000680400A011B610BBFB9C
:4D2B9D00008430090601000009000024008041000040084898040000000000902011000000000000000000000000000000001082004002489804200124200008001226014810108B00244C02900012E9FA04
:4D2BEA0060000C800100000600003800006000008005300006000000000060013C00000000000000000000000000000000E0001C8805300006C000180007E2412C800170001EC00018000360010C0048FA35
:4D2C3700840030000601001800000010008041000000C100180000000000800130000000000000000000000000000000000040200006C0001800036000088001300006002018000360000C80013000E1F990
:4D2C84000008310A1600001804002002008005000014C020180500000000004130210000000000000000000000000000008010100A04C120180583601084824520084641045808A360108C0241300850FDE0
:4D2CD1002090048000000042000008210020040180105284020000080000A0840420000000000000000000000000000000201095801214820240100A0825200004840010888A4000084401A010051028FE82
:4D2D1E00000000000000000008000000000000000000000000000000000000000000000000000000000000000000000000000000200000000000000000000800000000000000100000000000000000A0FF89
:4D2D6B00000031100000001E0000780000E0000080077040180800602000E0800000000000000000000000000000000000E00110A003F24018C8032100048081100006F20008000379200CE400200070FC36
:4D2DB8000C080000A600001A02006808002008028046D808000000000000A0112042000000000000000000000000000000A009218146D0080040134012881000200800D010100200680400A011120AB2FFFB
:4D2E05000400300840000000090000240080050000400848180500601000009080000000000000000000000000000000000010A2104002481804200124289045001206014810088300248C0290001200F932
:4D2E520060000D80070100160000580000E041008005300006000018000060002C2000000000000000000000000000000060013C8001B00006C00258000F60002C8001B0001EC00058000360001C0010FFB2
:4D2E9F00848030080600001800006000008081000006C000180400601000800110000000000000000000000000000000008001300006C00018040300000C8041000006C10018008360000C82010008E1F9B2
:4D2EEC00000430004602005004004011000001000014C1225800006000008045200A0000000000000000000000000000000045B01016812258008A40102C8411200A16802298100340112C80459000C8FC05
:4D2F3900200005A210000002020028210020000080121202420000000000A004150100000000000000000000000000000020209480801008025109288425200014A24014408250200820812004852010F876
:4D2F860000000000000200000000000000000000000000400008000000000000002000000000000000000000000000000000000020000040000000010000080000000000000000000100000400000048F8E6
:4D2FD30000801C900302000804003800000080008003F0400E0800000000E0801008000000000000000000000000000000004110000470400EC00139000488811C8003842000C001420007E0013C0050FFA8
:4D302000080084802000005000006808008009008046D808420000000000A0112002000000000000000000000000000000800420040211088250136808480000B4A0104008105008201141A811B61082F953
:4D306D008084300126000000090000240000000000400848980000000000009020220000000000000000000000000000000010224240C2049800200124288441001226004880041300244C00900012E8FF40
:4D30BA0060003C88070100160000180000E041008001B0001E040000000060003C00000000000000000000000000000000E0003C8003F0201EC40018000F60000C8007710016C08338000F62012C0050FDC7
:4D310700040030100602000004006000008081000006C000180800000000800130000000000000000000000000000000000040301000C04018080360000C8441300006022008040301100C84013000B9F875
:4D315400000821000400001000006014008005000046812810000000000080513010000000000000000000000000000000800030001281001000A360140C8001300A0440025000022001080051200AD0FCAF
:4D31A100209014A2120000020200080100A00401801010104A000000000120100604000000000000000000000000000000A01035801010100A51200C0821220405844214828A400008208520800410A8FFE4
:4D31EE00000000000002000000000020000000000000020000080000000000000000000000000000000000000000000000000030000002000000000000000000000000000000100000000004000000E0FC46
:4D323B0080000D900102000800007800006000008007400006080000000CE4811008000000000000000000000000000000E000008007420006C00321100FE000108801F40008000041400380002000F8FDA8
:4D3288000808848020000050040068080020080280468828420000000000A011A000000000000000000000000000000000A00901804680288250134001092208218010D0101021132002410841100912FBB6
:4D32D500000030092601000009000024008049000040084898040000000C029000120000000000000000000000000000000010021040024898042001244C8249001226014810010800244C0290001248FBE5
:4D33220060002D800500001600005800006001008005B00016000000000360012C0000000000000000000000000000000060000C8005B00016C00258000FE0012C8005B0001EC88338000B60011C00C8F897
:4D336F00048030100602000008006010008081000006012018080000000C82410008000000000000000000000000000000804100000601201808830010048081000806C22018100300100C0400000041FD95
:4D33BC00000430000600009000004004008001000044800018000000000C001120000000000000000000000000000000008011000544800218002240000C0101200106800818008320020C0045100830FF34
:4D3409002090048010040042100008202128100080121010420000000000A0108600000000000000000000000000000000200404A1405008025140080401A40485A04054828A4021284481A004952034F9EF
:4D34560000000000000000000000000000008000000002000008000000000000001000000000000000000000000000000000800000000240000000002000000000000000000010000100000400000010FE8A
:4D34A300000001900302001E0000400007E00000800340000E0000000000E0803C00000000000000000000000000000000E00100800332400E000138000060003C8003720008C4003A2007E8001C0090F92C
:4D34F000080830812000001A020020112128080280468824822000000000A011B440000000000000000000000000000000A00921A04010088220920808082808B5A020D010104008680401A011B61023F86B
:4D353D000000800016010000090000242C82450000400848580400000000009000120000000000000000000000000000000010020A16C1225804206111808245001216014890088B00242C0290001221F811
:4D358A0060003D8807000016000038000FE001008001B0001E000000000060002C0000000000000000000000000000000060012C8007B0001EC00278000B60012C800730001EC00218000F60000C0040F899
:4D35D7000481300006020018040000000C84810000060100180800000000804130080000000000000000000000000000008041100806C2401808006020048281300806C22018100361100C84413008D1FA85
:4D36240000043008040000500000201408000100001680201000000000008005A0000000000000000000000000000000000005200104C0001000824000488001A00004C0025800036001088005B00068FB5A
:4D367100309004A20000004A5000280201200000802250024A000008012128089500000000000000000000000000000000A0049480C010100240112A0425200405820010080242200820852080041038FB9B
:4D36BE0000000000000000000000004000000000000004400008000020000000001000000000000000000000000000000000800020000000000000002000080000100000400000000100000400000010FDD9
:4D370B0000001D000000000E000321000C04800000027040060000384007E4811C00000000000000000000000000000000E000108007420000C001190004E0001D0000700008C00140000388002008D8FE44
:4D3758000C090441A600001A02004081008009000004D108822000080121A011B440000000000000000000000000000000A00921C146802498421308084824008420A61010906020221201005110011AFA6D
:4D37A5000400300A00000000098340220C0210000014044818050060148C02900012000000000000000000000000000000001022024002484000206114488051300A10C0280009A300248C0290001218F87E
:4D37F20060003D8007010006C000780003E041008007300016000078000F60010C0000000000000000000000000000000060003C9005B0001EC40058000FE8013C8007F10016C00338000B60011C0040FAA8
:4D383F000480301006040018040360000C8201010006C02018080060200C844130080000000000000000000000000000008041302006010018008360200C8081301006C04000000301000C04400000E9FF0E
:4D388C000004200006000018000362102C8009000026C400180000400008000130000000000000000000000000000000008001B00004802018040360000C0401200006810050200220100C0005102120F9FF
:4D38D900209014A2120400024221280125A810008080101002000028012528208400000000000000000000000000000000209094804210100A5140080825A0041582425408824021280101A010040208F9EC
:4D39260000000000000000000000012000008000000000000000000020000000000800000000000000000000000000000000000020000200000000000000080000100000400004000120000080001098FCC8
:4D39730000000D8001020008C0003900036000000002400000000018400384403C00000000000000000000000000000000E001108001420006000120000468000D800132001EC00038200064001C0040FC7D
:4D39C000080804C12000009044086808212808020014810099020008012100112409000000000000000000000000000000A00921A240802282208A402108200084A02010109244206A044C201086109AFE19
:4D3A0D000000300806010000098300240C8241000040084840000060100C029030080000000000000000000000000000000010A2400601481804200124488841300806C12018048300242080413008E0FE0C
:4D3A5A0060002D8005000016C00218000B6001008005B0001E040058000B60013C0000000000000000000000000000000060013C8005B00016C00258000F60012C8005B0001EC00218000F62013C00C8FE1B
:4D3AA7000480301006020000000361100C8481000000000018000060200C044010100000000000000000000000000000008041300006020018088000000C8081301006C24008080361100C8081301029F998
:4D3AF4000005300006000010040360020C8001000044812218040060000C0005B0000000000000000000000000000000000009301206808018000240144C9001300006C00058000360020C8201200010FB17
:4D3B4100100000000000000000000000000000000000000000000000000000000000000000000000000000000000000000000000000000000000000000000000000000000000000000000000000000CCFB60
:4D3B8E0020000480001000024000080001200004800010000240000800012000040000000000000000000000000000000020000480001000024000080001200004800010000240000800012000040098FF0F
:4D3BDB0000000000000000000000000000000000000000000000000000000000000000000000000000000000000000000000000000000000000000000000000000000000000000000000000000000098FF06
:4D3C28002C0004800010000240000800012000048000100002400008000120000400000000000000000000000000000000200004800010000240000800012000048000100002400008000120000400E3F824
:4D3C7500040000000000000000000000000000000000000000000000000000000000000000000000000000000000000000000000000000000000000000000000000000000000000000000000000000C9FA3B
:4D3CC200200000000010000000000000000000040000000000400000000000000000000000000000000000000000000000000000000000000000000000000000000000000000000000000000000000B8FA8F
:4D3D0F0004000000000000000000000000000000000000000000000000000000000000000000000000000000000000000000800010000000000800000000040000100000000000000000000000000041FF77
:4D3D5C002000049120120002611009844124200480201210824800080841242004110000000000000000000000000000002010048220124402411009228120880482201244824850080A4121280405B0FA3C
:4D3DA90000000000000000000000001000000000000001000000000000000000000800000000000000000000000000000000000400000000000000000000000000000000000006000000000000000028F989
:4D3DF60000000000000000000000000000000000000000000000000000000000000000000000000000000000000000000000000008000000000000000000020000000000000000000000000000000090FDE9
:4D3E430000040000000000000000000000000000000000000000000000000000000000000000000000000000000000000000000000000000000000000000000000000000000000000000000000000098FB9B
:4D3E9000008000000000000000000000000000000000000000000000000000004000000000000000000000000000000000000000000000000000000000000000000000000000080000000000000000D8FB4A
:4D3EDD00000018000000000000011800004000000000000008000000080400000000000000000000000000000000000000000000100000000000000000000400000080300000884010000240000800B0F984
:4D3F2A000000008000000002000000000002000080005000020000000000A0000440000000000000000000000000000000200004800050000240000800212000048000000002000000000000000000BCFD52
:4D3F7700800010000000000000000000000000000000000000000000000040000800000000000000000000000000000000000000080000000000000000000000000000040000000000000000001000C8FF42
:4D3FC40080000008020000000000001000000000000001000000002000004000080000000000000000000000000000000000400000004100000000200000020010080020200000000000000040000020F959
:4D401100E00018E00000000000000040000000000000040000000008000060400C0000000000000000000000000000000000000110001400000000080000080004200012800000000000000000090080F826
:4D405E000020C415000000100000000000000100000000000000000000000001300C0000000000000000000000000000000041000000001200000200000000400000C6C0100000004000080000000030FF2C
:4D40AB0000000000000000000000000000000000000000000000000000000000080400000000000000000000000000000000400000000000000000000000004000000440000000000000000000000010FFE9
:4D40F800002000200000000800000000008000000000000000000000000080000804000000000000000000000000000000800000000000800000010000000000008000118000000020000800000000C0FF2E
:4D414500000000000000000000000000000000000000000000000000000000000000000000000000000000000000000000000000000000400000000000000000000000000020000000000000000000D8FDF8
:4D41920000008000000000000000000100000000000002020000000000000000010000000000000000000000000000000080041000000000480000024104000090001000020040000801012004040038FCEF
:4D41DF0000000020000000000000000000200001000010000010000800002000000000000000000000000000000000000000000000000000000000000000000000000000000000000000000000000008FE04
:4D422C0000000000000000002000008000000000000000000000000000000000000000000000000000000000000000000000000000000000000800000000008000000000000000000000000400000058FDC4
:4D42790000000000000000040000000000000000000000000000000000000000000000000000000000000000000000000000000004000000000000000000080000000000000020000000000000000070FF59
:4D42C600000040000800000000040000100000000008000020000000001000000000000000000000000000000000000000000000000800010000048000000002000008000120000000000000000000A0FAC5
:4D43130080000000000000000000000000000000000000000000000000000000000000000000000000000000000000000000000000000000000000000010000000000000004000000000000000000008FB8A
:4D43600000000000000000000000000000000000000000000000000000000000001000000000000000000000000000000000000000000000000000000010000000000000000000000000000000000088FE6A
:4D43AD0008000000000000000000000000000000000000000000000000000000004000000000000000000000000000000000000000000000000000000000000000000000000000000000000000000090FBF0
:4D43FA0000000000000000000000000000000000000000000000000000000000000000000000000000000000000000000000000000000000000000000002000000000000004800000000000000000038F9FB
:4D44470000000000000000000000000000000000000000000000000000000000000000000000000000000000000000000000002000000000000000000000000000000000000000000000000000000098FD73
:4D44940000000000100000000000000000000000000000000000000000000000000000000000000000000000000000000000000000000000000000000000000000080000000000000000000000011000FEB4
:4D44E100000000000000000000040000000002000008000000000000000000000000000000000000000000000000000000000200000800010000008000000000400000002100000400001000024000F8F84E
:4D452E00000000000000000000000000000000000000000000000000000000000000000000000000000000000000000000000000000000000000000000000000000000000000200000000000000000B8FF69
:4D457B0000000000000000000000000000000000000000000000000000000000000000000000000000000000000000000000000080001000004000000000000000000000000000000000000000040018FE09
:4D45C800000000000000000000000000000000000000000000000000000000000000000000000000000000000000000000008000000000000000000000000000000000000000000000000000002000B0FD59
:4D461500000000008100000002000000000120000000000000000000000001200000000000000000000000000000000000000000008000100000000000000020000401001000008000000000200004F0FA40
:4D46620000000000040000100000400000000000000480101000004000000020200000000000000000000000000000000000010000040000000042000000000000000000000010004000000000000068FB99
:4D46AF0000000000000000020000010000000000008000000000000000000000000000000000000000000000000000000000000040000000008000080004000000000000000000000000000000000010F867
:4D46FC00000000000000000000000000000000000000000000000000000000009000000000000000000000000000000000000000200000000000000000000000000000000000000000000000000000A0FE23
:4D474900000000000000000000000000000000000000000000000000000000000000000000000000000000000000000000000000000000000000000000000000000000000000000000000000000000DCFB4C
:4D47960000000000000000000000000000000000000000000000000000000000000000000000000000000000000000000000000000020000000000000008000000000000000000002000000000000090FF1D
:4D47E30002000000040000080000200000000000000200000000000000008000000000000000000000000000000000000000000008000000000000000002100000000000000000002000000000000080FA25
:4D483000000000000000000000000000000000000000000000000000000000000000000000000000000000000000000000400000040000000000000000000000000000000000020000000000000000B8F944
:4D487D0000000000000000000000000000000000000000000000000000000080000000000000000000000000000000000000000000000000000000000000020000000000000000000000000040000058FDD7
:4D48CA008020000002000000040120000480000000000100000000000000820001100000000000000000000000000000000000000000012008008000100000000808020000004080001000000010002CFDEE
:4D491700A0000180000000005000080001200000000004000000000000002880012000000000000000000000000000000000000008024480020000024000040004A000000000400022400000800408D0FA3A
:4D49640000A1660400000012000000A00000002080E4101810000000000020611000000000000000000000000000000000200000000480000040000D0800000000080241000800010000080000000630FE73
:4D49B10000000000000000000000000000000000000000000000000000000080100000000000000000000000000000000000000000000000000000000000000000880014000840000000000000000018FA33
:4D49FE00804010080000000400000000000000080001012008000000000040800000000000000000000000000000000000000000800040000000000008000000000000000000000000000400000008F8F9D9
:4D4A4B00000000000000000000000000000004000000000000000000000000000000000000000000000000000000000000000010000000000010000000000000000000000000000000000000000000D8FF23
:4D4A980000000000000000000000200000000000000008000000000000000000000800000000000000000000000000000000002000000000000000000000000400000000000000000000200000020050FF0C
:4D4AE50000000000000000000000000000000000000000000000000000000000000000000000000000000000000000000000000000000000000000000000000000000000000010000000000000000088FFED
:4D4B320000000000000000000000000000000000000000000000000000000000000000000000000000000000000000000000000000000000000000000000000000000000001000000000000000000098FE90
:4D4B7F0000000000000000000000000000000000000000000000000000000000000000000000000000000000000000000000004800000000000000000000020000000000000200000000000000000038F96C
:4D4BCC0000000000000000000000000000000000000000000000000000000000000000000000000000000000000000000000000800000000000000400000010000000000000000000000000000000058FA01
:4D4C190000000000000000000000000000800000000000000000000000000000200000000000000000000000000000000000008020000000000000000000000000000000000000000000000000000018FDF9
:4D4C660000000000000000000000000000000000000000800000000000000000000000000000000000000000000000000000000000000000000000000000000000000000000000000000000000000090FFF2
:4D4CB300000000000000000000000000000000000000000000000000000000008000000000000000000000000000000000000000000000000000000000200000000000000000000000000000000000B0FF65
:4D4D000048000000000000000000000000000000000000000000000000000000000000000000000000000000000000000000000000000000000000000000000000000000000000000000000000008058FF47
:4D4D4D0000000000000000000000008000000000000000000000000000000000500400000000000000000000000000000000000000000000000000000001000000000000000C000000010000000000C0FA7D
:4D4D9A00000008000100000480001000024000000000240004000010000240000800000000000000000000000000000000000001000120000480001000005000080001200004800010000240000800E0FA84
:4D4DE70000000000000000000000000000000000800000000000000000000000000000000000000000000000000000000000000000000000000000000000000000000000000000000000000000000090FF70
:4D4E340000000000000000000000000000000000000000000000000000000000000000000000000000000000000000000000000000000000000000000000000000000000000000000000000000000098FF9A
:4D4E8100000000000000000000000000000000000006000000000000000000000000000000000000000000000000000000000000000000000000000000000000000000000000000000000000000000F8FFE7
:4D4ECE00000000000000000000000000000000000040020000000000000000000000000000000000000000000000000000000000000000000000000000000000000000000000000000000000000000B8F9A4
:4D4F1B00000000000000000000000000000000000026000000000000000000000000000000000000000000000000000000000000000000000000000000000000000000000000000000000000000000F8FD2E
:4D4F680000000000000000000000000000000000800101000000000000000000000000000000000000000000000000000000000000000000000000000000000000000000000000000000000000000090FEEC
:4D4FB500000000000000000000000000000000000006000000000000000000000000000000000000000000000000000000000000000000000000000000000000000000000000000000000000000000F8FFB2
:4D500200000000000000000000000000000000000016010000000000000000000000000000000000000000000000000000000000000000000000000000000000000000000000000000000000000000E8FF63
:4D504F0000000000000000000000000000000000800000000000000000000000000000000000000000000000000000000000000000000000000000000000000000000000000000000000000000000090FF05
:4D509C0000000000000000000000000000000000000000000000000000000000000000000000000000000000000000000000000000000000000000000000000000000000000000000000000000000098FF30
:4D50E900000000000000000000000000000000000006000000000000000000000000000000000000000000000000000000000000000000000000000000000000000000000000000000000000000000F8FF7D
:4D51360008000000000000000000000000000000004002000000000000000000000000000000000000000000000000000000000000000000000000000000000000000000000000000000000000000092FB55
:4D518300000000000000000000000000000000000046010000000000000000000000000000000000000000000000000000000000000000000000000000000000000000000000000000000000000000E8FAB6
:4D51D00000000000000000000000000000000000800100000000000000000000000000000000000000000000000000000000000000000000000000000000000000000000000000000000000000000080FF92
:4D521D00040000000000000000000000000000000006010000000000000000000000000000000000000000000000000000000000000000000000000000000000000000000000000000000000000000B9FB85
:4D526A00000000000000000000000000000000000016000000000000000000000000000000000000000000000000000000000000000000000000000000000000000000000000000000000000000000F8FEEB
:4D52B700000000000000000000000000000000008020040000000000000000000000000000000000000000000000000000000000000000000000000000000000000000000000000000000000000000D0F93D
:4D53040000000000000000000000000000000000000000000000000000000000000000000000000000000000000000000000000000000000000000000000000000000000000000000000000000000098FFC5
:4D535100000000000000000000000000000000008003000000000000000000000000000000000000000000000000000000000000000000000000000000000000000000000000000000000000000000A0FFED
:4D539E00080000000000000000000000000000008040040000000000000000000000000000000000000000000000000000000000000000000000000000000000000000000000000000000000000000FAFDFF
:4D53EB00000000000000000000000000000000000016000000000000000000000000000000000000000000000000000000000000000000000000000000000000000000000000000000000000000000F8FE69
:4D543800000000000000000000000000000000008007010000000000000000000000000000000000000000000000000000000000000000000000000000000000000000000000000000000000000000F0FEB1
:4D548500040000000000000000000000000000000006000000000000000000000000000000000000000000000000000000000000000000000000000000000000000000000000000000000000000000A9FA2D
:4D54D200000000000000000000000000000000000044020000000000000000000000000000000000000000000000000000000000000000000000000000000000000000000000000000000000000000F8F956
:4D551F00000000000000000000000000000000008022040000000000000000000000000000000000000000000000000000000000000000000000000000000000000000000000000000000000000000F0F9B0
:4D556C0000000000000000000000000000000000000000000000000000000000000000000000000000000000000000000000000000000000000000000000000000000000000000000000000000000098FF5B
:4D55B90000000000000000000000000000000000800100000000000000000000000000000000000000000000000000000000000000000000000000000000000000000000000000000000000000000080FFA5
:4D560600080000000000000000000000000000008040040000000000000000000000000000000000000000000000000000000000000000000000000000000000000000000000000000000000000000FAFD94
:4D565300000000000000000000000000000000000026000000000000000000000000000000000000000000000000000000000000000000000000000000000000000000000000000000000000000000F8FDEF
:4D56A000000000000000000000000000000000008005010000000000000000000000000000000000000000000000000000000000000000000000000000000000000000000000000000000000000000D0FE69
:4D56ED00040000000000000000000000000000000006000000000000000000000000000000000000000000000000000000000000000000000000000000000000000000000000000000000000000000A9FAC3
:4D573A00000000000000000000000000000000000046020000000000000000000000000000000000000000000000000000000000000000000000000000000000000000000000000000000000000000D8F909
:4D57870000000000000000000000000000000000800000000000000000000000000000000000000000000000000000000000000000000000000000000000000000000000000000000000000000000090FFC6
:4D57D40000000000000000000000000000000000000000000000000000000000000000000000000000000000000000000000000000000000000000000000000000000000000000000000000000000098FFF1
:4D582100000000000000000000000000000000000000020000000000000000000000000000000000000000000000000000000000000000000000000000000000000000000000000000000000000000B8FD83
:4D586E00080000000000000000000000000000000006000000000000000000000000000000000000000000000000000000000000000000000000000000000000000000000000000000000000000000D2FD10
:4D58BB0000000000000000000000000000000000000000000000000000000000000000000000000000000000000000000000000000000000000000000000000000000000000000000000000000000098FF09
:4D590800000000000000000000000000000000008007010000000000000000000000000000000000000000000000000000000000000000000000000000000000000000000000000000000000000000F0FEDC
:4D595500040000000000000000000000000000000006000000000000000000000000000000000000000000000000000000000000000000000000000000000000000000000000000000000000000000A9FA58
:4D59A200000000000000000000000000000000000026040000000000000000000000000000000000000000000000000000000000000000000000000000000000000000000000000000000000000000B8F9DD
:4D59EF00000084000000000000000842000000008010000000000000000000000000000000000000000000000000000000000000000000000000000000000000000000000000000000000000000000F0FA23
:4D5A3C00000000100000000000000000000000000000020000000000000000000000000000000000000000000000000000000000000000000000000000000000000000000000000000000000000000A8FD66
:4D5A890000001C000000000000003800000000008003000000000000000000000000000000000000000000000000000000000000000000000000000000000000000000000000000000000000000000D8FD24
:4D5AD60008000405000000000000080A000000008040040000000000000000000000000000000000000000000000000000000000000000000000000000000000000000000000000000000000000000C2F8E2
:4D5B23000000B008000000000000601100000000001601000000000000000000000000000000000000000000000000000000000000000000000000000000000000000000000000000000000000000018FBE2
:4D5B700000003C000000000000007800000000008007000000000000000000000000000000000000000000000000000000000000000000000000000000000000000000000000000000000000000000D8FBDA
:4D5BBD00040030000000000000006000000000000006000000000000000000000000000000000000000000000000000000000000000000000000000000000000000000000000000000000000000000C9FF39
:4D5C0A00000020120000000000004024000000000044020000000000000000000000000000000000000000000000000000000000000000000000000000000000000000000000000000000000000000C8FFAA
:4D5C570000000400000000000000080000000000801200000000000000000000000000000000000000000000000000000000000000000000000000000000000000000000000000000000000000000078FEEC
:4D5CA400000000000000000000000000000000000000020000000000000000000000000000000000000000000000000000000000000000000000000000000000000000000000000000000000000000B8FDFC
:4D5CF100000030000000000000006000000000008001000000000000000000000000000000000000000000000000000000000000000000000000000000000000000000000000000000000000000000E0FA7B
:4D5D3E000800001200000000000000240000000080400400000000000000000000000000000000000000000000000000000000000000000000000000000000000000000000000000000000000000008AFD8F
:4D5D8B0000003008000000000000601000000000004601000000000000000000000000000000000000000000000000000000000000000000000000000000000000000000000000000000000000000080FE5E
:4D5DD80000000C00000000000000180000000000800500000000000000000000000000000000000000000000000000000000000000000000000000000000000000000000000000000000000000000098FE3F
:4D5E2500040030080000000000006010000000000006000000000000000000000000000000000000000000000000000000000000000000000000000000000000000000000000000000000000000000C1FEBF
:4D5E72000000B000000000000000600100000000004602000000000000000000000000000000000000000000000000000000000000000000000000000000000000000000000000000000000000000020FC6E
:4D5EBF00000094000000000000002842000000008000000000000000000000000000000000000000000000000000000000000000000000000000000000000000000000000000000000000000000000D0F850
:4D5F0C0000000010000000000000000000000000000000000000000000000000000000000000000000000000000000000000000000000000000000000000000000000000000000000000000000000088FFB1
:4D5F590000000C000000000000001800000000000000020000000000000000000000000000000000000000000000000000000000000000000000000000000000000000000000000000000000000000E0FCF9
:4D5FA60008000405000000000000080A000000000006000000000000000000000000000000000000000000000000000000000000000000000000000000000000000000000000000000000000000000EAF8A3
:4D5FF300000030080000000000006010000000000040000000000000000000000000000000000000000000000000000000000000000000000000000000000000000000000000000000000000000000F0FF8A
:4D60400000002C000000000000005800000000008007010000000000000000000000000000000000000000000000000000000000000000000000000000000000000000000000000000000000000000E8F926
:4D608D0004003000000000000000600000000000000604000000000000000000000000000000000000000000000000000000000000000000000000000000000000000000000000000000000000000089FBA4
:4D60DA00000030120000000000006024000000000016000000000000000000000000000000000000000000000000000000000000000000000000000000000000000000000000000000000000000000E8FBBA
:4D61270000000000000000000000000000000000000000000000000000000000000000000000000000000000000000000000000000000000000000000000000000000000000000000000000000000098FF94
:4D61740020000480001000024000080001200004800010000240000800012000040000000000000000000000000000000020000480001000024000080001200004800010000240000800012000040098FF03
:4D61C10000000000000000000000000000000000000000000000000000000000000000000000000000000000000000000000000000000000000000000000000000000000000000000000000000000098FFFA
:4D620E00280004800010000240000800012000048000100002400008000120000400000000000000000000000000000000200004800010000240000800012000048000100002400008000120000400B2FD48
:4D625B0000000000000000000000000000000000000000000000000000000000000000000000000000000000000000000000000000000000000000000000000000000000000000000000000000000098FF5F
:4D62A80020000080001000024000000001200004000010000240000800012000040000000000000000000000000000000020000480001000024000080001200004800010000240000800012000040058FF9A
:4D62F500040000000000000000000000000000000000000000000000000000000000000000000000000000000000000000000000000000000000000000000000000000000000000000000000000000C9FA95
:4D63420020000491001000024000082201200004802012000240000800012000040000000000000000000000000000000020000480001000024000080001200004800010000240000800012000040098FCE1
:4D638F0000000000000000000000000000000000000000000000000000000000000000000000000000000000000000000000000000000000000000000000000000000000000000000000000000000098FF2A
:4D63DC0000000000000000000000000000000000000000000000000000000000000000000000000000000000000000000000000000000000000000000000000000000000000000000000000000000098FFDD
:4D64290000000000000000000000000000000000000000000000000000000000000000000000000000000000000000000000000000000000000000000000000000000000000000000000000000000098FF8F
:4D64760000000000000000000000000000000000000000000000000000000000000000000000000000000000000000000000000000000000000000000000000000000000000000000000000000000098FF42
:4D64C30000000000000000000000000000000000000000000000000000000000000000000000000000000000000000000000000000000000000000000000000000000000000000000000000000000098FFF5
:4D65100000000000000000000000000000000000000000000000000000000000000000000000000000000000000000000000000000000000000000000000000000000000000000000000000000000098FFA7
:4D655D0000000000000000000000000000000000000000000000000000000000000000000000000000000000000000000000000000000000000000000000000000000000000000000000000000000098FF5A
:4D65AA00000000000000000000000000000000000000000000000000000040000000000000000000000000000000000000000000000000000000000000000000000000040000000000000000000000D8FF89
:4D65F700000000000000000000000000000000000000000000000000000020000000000000000000000000000000000000000000000000000000000000000000000000040000000000000000000000D8F962
:4D664400004000000000000000000000000000000000000000000000000000000000000000000000000000000000000000000000000000000000000000000000000000000000000000000000000000D8FBF6
:4D669100002000000000000000000000000000000000000000000000000000000000000000000000000000000000000000000000000000000000000000000000000000000000000000000000000000B8FDE7
:4D66DE0000000000000000000000000000000000000000000000000000000000000000000000000000000000000000000000000000000000000000000000000000000000000000000000000000000098FFD8
:4D672B0000000000000000000000000000000000000000000000000000000000000000000000000000000000000000000000000000000000000000000000000000000000000000000000000000000098FF8A
:4D67780000000000000000000000000000000000000000000000000000000000000000000000000000000000000000000000000000000000000000000000000000000000000000000000000000000098FF3D
:4D67C50000000000000000000000000000000000000000000000000000000000000000000000000000000000000000000000000000000000000000000000000000000000000000000000000000000098FFF0
:4D68120000000000000000000000000000000000000000000000000000000000000000000000000000000000000000000000000000000000000000000000000000000000000000000000000000000098FFA2
:4D685F0000000000000000000000000000000000000000000000000000000000000000000000000000000000000000000000000000000000000000000000000000000000000000000000000000000098FF55
:4D68AC0000004000000000000000800000000000000800000000000000000000000000000000000000000000000000000000000000000000000000000000000000000000000000000000000000000010FBCC
:4D68F90000000000000000000000000000000000000000000000000000000000000000000000000000000000000000000000000000000000000000000000000000000000000000000000000000000098FFBB
:4D69460000000000000000000000000000000000000000000000000000000000000000000000000000000000000000000000000000000000000000000000000000000000000000000000000000000098FF6D
:4D69930000000000000000000000000000000000000000000000000000000000000000000000000000000000000000000000000000000000000000000000000000000000000000000000000000000098FF20
:4D69E00000000000000000000000000000000000000100000000000000000000000000000000000000000000000000000000000000000000000000000000000000000000000000000000000000000088FFE2
:4D6A2D0000000000000000000000000000000000000000000000000000000000000000000000000000000000000000000000000000000000000000000000000000000000000000000000000000000098FF85
:4D6A7A0000000400000000000000080000000000000000000000000000000000000000000000000000000000000000000000000000000000000000000000000000000000000000000000000000000050FF74
:4D6AC70000000000000000000000000000000000000000000000000000000000000000000000000000000000000000000000000000000000000000000000000000000000000000000000000000000098FFEB
:4D6B140000000000000000000000000000000000000000000000000000000000000000000000000000000000000000000000000000000000000000000000000000000000000000000000000000000098FF9D
:4D6B610000000000000000000000000000000000000000000000000000000000000000000000000000000000000000000000000000000000000000000000000000000000000000000000000000000098FF50
:4D6BAE0000000000000000000000000000000000000000000000000000000000000000000000000000000000000000000000000000000000000000000000000000000000000000000000000000000098FF03
:4D6BFB0000000000000000000000000000000000000000000000000000000000000000000000000000000000000000000000000000000000000000000000000000000000000000000000000000000098FFB6
:4D6C4800000020000000000000000008000000000084000000000000000000000000000000000000000000000000000000000000000000000000000000000000000000000000000000000000000000D0FD86
:4D6C950000000000000000000000000000000000000000000000000000000000000000000000000000000000000000000000000000000000000000000000000000000000000000000000000000000098FF1B
:4D6CE20000000000000000000000000000000000000000000000000000000000000000000000000000000000000000000000000000000000000000000000000000000000000000000000000000000098FFCE
:4D6D2F0000000000000000000000000000000000000000000000000000000000000000000000000000000000000000000000000000000000000000000000000000000000000000000000000000000098FF80
:4D6D7C0000000000000000000000000000000000000000000000000000000000000000000000000000000000000000000000000000000000000000000000000000000000000000000000000000000098FF33
:4D6DC90000000000000000000000000000000000008000000000000000000000000000000000000000000000000000000000000000000000000000000000000000000000000000000000000000000010FFEE
:4D6E160000000000000000000000000000000000000000000000000000000000000000000000000000000000000000000000000000000000000000000000000000000000000000000000000000000098FF98
:4D6E630020200000000000000000000000000000000000000000000000000000000000000000000000000000000000000000000000000000000000000000000000000000000000000000000000000098FD0D
:4D6EB000000010000000000000002000000000000000000000000000000000000000000000000000000000000000000000000000000000000000000000000000000000000000000000000000000000B8FCB1
:4D6EFD004080040000000000000008000000000000A000000000000000000000000000000000000000000000000000000000000000000000000000000000000000000000000000000000000000000090FD4F
:4D6F4A0000000000000000000000000000000000000100000000000000000000000000000000000000000000000000000000000000000000000000000000000000000000000000000000000000000088FF72
:4D6F970000000000000000000000000000000000000000000000000000000000000000000000000000000000000000000000000000000000000000000000000000000000000000000000000000000098FF16
:4D6FE40000000000000000000000000000000000000000000000000000000000000000000000000000000000000000000000000000000000000000000000000000000000000000000000000000000098FFC9
:4D70310000000000000000000000000000000000000000000000000000000000000000000000000000000000000000000000000000000000000000000000000000000000000000000000000000000098FF7B
:4D707E00000000000000000000000000000000000000020000000000000000000000000000000000000000000000000000000000000000000000000000000000000000000000000000000000000000B8FD0E
:4D70CB0000002000000000000000400000000000000400000000000000000000000000000000000000000000000000000000000000000000000000000000000000000000000000000000000000000098F983
:4D71180000000000000000000000000000000000000000000000000000000000000000000000000000000000000000000000000000000000000000000000000000000000000000000000000000000098FF93
:4D71650000000000000000000000000000000000000000000000000000000000000000000000000000000000000000000000000000000000000000000000000000000000000000000000000000000098FF46
:4D71B20000000000000000000000000000000000000000000000000000000000000000000000000000000000000000000000000000000000000000000000000000000000000000000000000000000098FFF9
:4D71FF0000000000000000000000000000000000000000000000000000000000000000000000000000000000000000000000000000000000000000000000000000000000000000000000000000000098FFAC
:4D724C0000000000000000000000000000000000000000000000000000000000000000000000000000000000000000000000000000000000000000000000000000000000000000000000000000000098FF5E
:4D72990000000000000000000000000000000000000001000000000000000000000000000000000000000000000000000000000000000000000000000000000000000000000000000000000000000088FE21
:4D72E60000000000000000000000000000000000000000000000000000000000000000000000000000000000000000000000000000000000000000000000000000000000000000000000000000000098FFC4
:4D73330000000000000000000000000000000000000000000000000000000000000000000000000000000000000000000000000000000000000000000000000000000000000000000000000000000098FF76
:4D73800000000000000000000000000000000000000000000000000000000000000000000000000000000000000000000000000000000000000000000000000000000000000000000000000000000098FF29
